{
  "contractName": "CertificateRegistry",
  "abi": [
    {
      "inputs": [],
      "stateMutability": "nonpayable",
      "type": "constructor"
    },
    {
      "anonymous": false,
      "inputs": [
        {
          "indexed": false,
          "internalType": "string",
          "name": "serialNumber",
          "type": "string"
        },
        {
          "indexed": true,
          "internalType": "address",
          "name": "sender",
          "type": "address"
        },
        {
          "indexed": false,
          "internalType": "uint256",
          "name": "timestamp",
          "type": "uint256"
        }
      ],
      "name": "CertificateDeleted",
      "type": "event"
    },
    {
      "anonymous": false,
      "inputs": [
        {
          "indexed": false,
          "internalType": "string",
          "name": "serialNumber",
          "type": "string"
        },
        {
          "indexed": true,
          "internalType": "address",
          "name": "sender",
          "type": "address"
        },
        {
          "indexed": false,
          "internalType": "uint256",
          "name": "timestamp",
          "type": "uint256"
        }
      ],
      "name": "CertificateRegistered",
      "type": "event"
    },
    {
      "anonymous": false,
      "inputs": [
        {
          "indexed": false,
          "internalType": "string",
          "name": "serialNumber",
          "type": "string"
        },
        {
          "indexed": true,
          "internalType": "address",
          "name": "sender",
          "type": "address"
        },
        {
          "indexed": false,
          "internalType": "uint256",
          "name": "timestamp",
          "type": "uint256"
        }
      ],
      "name": "CertificateUpdated",
      "type": "event"
    },
    {
      "anonymous": false,
      "inputs": [
        {
          "indexed": false,
          "internalType": "string",
          "name": "serialNumber",
          "type": "string"
        },
        {
          "indexed": true,
          "internalType": "address",
          "name": "verifier",
          "type": "address"
        },
        {
          "indexed": false,
          "internalType": "uint256",
          "name": "timestamp",
          "type": "uint256"
        },
        {
          "indexed": false,
          "internalType": "bool",
          "name": "verified",
          "type": "bool"
        }
      ],
      "name": "CertificateVerified",
      "type": "event"
    },
    {
      "inputs": [
        {
          "internalType": "string",
          "name": "serialNumber",
          "type": "string"
        },
        {
          "internalType": "string",
          "name": "name",
          "type": "string"
        },
        {
          "internalType": "string",
          "name": "certCID",
          "type": "string"
        },
        {
          "internalType": "string",
          "name": "icNumber",
          "type": "string"
        },
        {
          "internalType": "string",
          "name": "studentId",
          "type": "string"
        },
        {
          "internalType": "string",
          "name": "courseName",
          "type": "string"
        },
        {
          "internalType": "string",
          "name": "issuedDate",
          "type": "string"
        },
        {
          "internalType": "string",
          "name": "certHash",
          "type": "string"
        },
        {
          "internalType": "string",
          "name": "transCID",
          "type": "string"
        }
      ],
      "name": "registerCertificate",
      "outputs": [],
      "stateMutability": "nonpayable",
      "type": "function"
    },
    {
      "inputs": [
        {
          "internalType": "string",
          "name": "serialNumber",
          "type": "string"
        }
      ],
      "name": "getCertificate",
      "outputs": [
        {
          "components": [
            {
              "internalType": "string",
              "name": "serialNumber",
              "type": "string"
            },
            {
              "internalType": "string",
              "name": "name",
              "type": "string"
            },
            {
              "internalType": "string",
              "name": "certCID",
              "type": "string"
            },
            {
              "internalType": "string",
              "name": "icNumber",
              "type": "string"
            },
            {
              "internalType": "string",
              "name": "studentId",
              "type": "string"
            },
            {
              "internalType": "string",
              "name": "courseName",
              "type": "string"
            },
            {
              "internalType": "string",
              "name": "issuedDate",
              "type": "string"
            },
            {
              "internalType": "string",
              "name": "certHash",
              "type": "string"
            },
            {
              "internalType": "string",
              "name": "transCID",
              "type": "string"
            }
          ],
          "internalType": "struct CertificateRegistry.Certificate",
          "name": "",
          "type": "tuple"
        }
      ],
      "stateMutability": "view",
      "type": "function",
      "constant": true
    },
    {
      "inputs": [],
      "name": "getAllCertificates",
      "outputs": [
        {
          "components": [
            {
              "internalType": "string",
              "name": "serialNumber",
              "type": "string"
            },
            {
              "internalType": "string",
              "name": "name",
              "type": "string"
            },
            {
              "internalType": "string",
              "name": "certCID",
              "type": "string"
            },
            {
              "internalType": "string",
              "name": "icNumber",
              "type": "string"
            },
            {
              "internalType": "string",
              "name": "studentId",
              "type": "string"
            },
            {
              "internalType": "string",
              "name": "courseName",
              "type": "string"
            },
            {
              "internalType": "string",
              "name": "issuedDate",
              "type": "string"
            },
            {
              "internalType": "string",
              "name": "certHash",
              "type": "string"
            },
            {
              "internalType": "string",
              "name": "transCID",
              "type": "string"
            }
          ],
          "internalType": "struct CertificateRegistry.Certificate[]",
          "name": "",
          "type": "tuple[]"
        }
      ],
      "stateMutability": "view",
      "type": "function",
      "constant": true
    },
    {
      "inputs": [
        {
          "internalType": "string",
          "name": "serialNumber",
          "type": "string"
        },
        {
          "internalType": "string",
          "name": "providedHash",
          "type": "string"
        }
      ],
      "name": "verifyCertificate",
      "outputs": [],
      "stateMutability": "nonpayable",
      "type": "function"
    },
    {
      "inputs": [
        {
          "internalType": "string",
          "name": "serialNumber",
          "type": "string"
        },
        {
          "internalType": "string",
          "name": "newName",
          "type": "string"
        },
        {
          "internalType": "string",
          "name": "newCertCID",
          "type": "string"
        },
        {
          "internalType": "string",
          "name": "newIcNumber",
          "type": "string"
        },
        {
          "internalType": "string",
          "name": "newStudentId",
          "type": "string"
        },
        {
          "internalType": "string",
          "name": "newCourseName",
          "type": "string"
        },
        {
          "internalType": "string",
          "name": "newIssuedDate",
          "type": "string"
        },
        {
          "internalType": "string",
          "name": "newCertHash",
          "type": "string"
        },
        {
          "internalType": "string",
          "name": "newTransCID",
          "type": "string"
        }
      ],
      "name": "updateCertificate",
      "outputs": [],
      "stateMutability": "nonpayable",
      "type": "function"
    },
    {
      "inputs": [
        {
          "internalType": "string",
          "name": "serialNumber",
          "type": "string"
        }
      ],
      "name": "deleteCertificate",
      "outputs": [],
      "stateMutability": "nonpayable",
      "type": "function"
    },
    {
      "inputs": [],
      "name": "getCertificatesCount",
      "outputs": [
        {
          "internalType": "uint256",
          "name": "",
          "type": "uint256"
        }
      ],
      "stateMutability": "view",
      "type": "function",
      "constant": true
    }
  ],
  "bytecode": "0x608060405234801561001057600080fd5b50336000806101000a81548173ffffffffffffffffffffffffffffffffffffffff021916908373ffffffffffffffffffffffffffffffffffffffff160217905550612a5e806100606000396000f3fe608060405234801561001057600080fd5b506004361061007d5760003560e01c8063714d8a051161005b578063714d8a05146100d857806381f6bf7d146100f45780638fb03a0214610110578063ed0f2e751461012e5761007d565b8063129745a61461008257806313fcfe801461009e5780632751f71b146100bc575b600080fd5b61009c60048036038101906100979190611ffa565b61015e565b005b6100a66103ea565b6040516100b3919061266f565b60405180910390f35b6100d660048036038101906100d19190611f8e565b610afc565b005b6100f260048036038101906100ed9190611ffa565b611183565b005b61010e60048036038101906101099190611f4d565b6113aa565b005b610118611773565b6040516101259190612781565b60405180910390f35b61014860048036038101906101439190611f4d565b611780565b604051610155919061275f565b60405180910390f35b60008054906101000a900473ffffffffffffffffffffffffffffffffffffffff1673ffffffffffffffffffffffffffffffffffffffff163373ffffffffffffffffffffffffffffffffffffffff16146101ec576040517f08c379a00000000000000000000000000000000000000000000000000000000081526004016101e3906126ff565b60405180910390fd5b6040518061012001604052808a81526020018981526020018881526020018781526020018681526020018581526020018481526020018381526020018281525060018a60405161023c9190612641565b90815260200160405180910390206000820151816000019080519060200190610266929190611d29565b506020820151816001019080519060200190610283929190611d29565b5060408201518160020190805190602001906102a0929190611d29565b5060608201518160030190805190602001906102bd929190611d29565b5060808201518160040190805190602001906102da929190611d29565b5060a08201518160050190805190602001906102f7929190611d29565b5060c0820151816006019080519060200190610314929190611d29565b5060e0820151816007019080519060200190610331929190611d29565b5061010082015181600801908051906020019061034f929190611d29565b5090505060028990806001815401808255809150506001900390600052602060002001600090919091909150908051906020019061038e929190611d29565b503373ffffffffffffffffffffffffffffffffffffffff167f2c3b79c6c7dd5508d583421a96c667d9c5c4b945572159f1f745aa99854863848a426040516103d7929190612691565b60405180910390a2505050505050505050565b606060008054906101000a900473ffffffffffffffffffffffffffffffffffffffff1673ffffffffffffffffffffffffffffffffffffffff163373ffffffffffffffffffffffffffffffffffffffff161461047a576040517f08c379a0000000000000000000000000000000000000000000000000000000008152600401610471906126ff565b60405180910390fd5b6000600280549050905060008167ffffffffffffffff8111156104c6577f4e487b7100000000000000000000000000000000000000000000000000000000600052604160045260246000fd5b6040519080825280602002602001820160405280156104ff57816020015b6104ec611daf565b8152602001906001900390816104e45790505b50905060005b82811015610af357600160028281548110610549577f4e487b7100000000000000000000000000000000000000000000000000000000600052603260045260246000fd5b906000526020600020016040516105609190612658565b90815260200160405180910390206040518061012001604052908160008201805461058a9061290f565b80601f01602080910402602001604051908101604052809291908181526020018280546105b69061290f565b80156106035780601f106105d857610100808354040283529160200191610603565b820191906000526020600020905b8154815290600101906020018083116105e657829003601f168201915b5050505050815260200160018201805461061c9061290f565b80601f01602080910402602001604051908101604052809291908181526020018280546106489061290f565b80156106955780601f1061066a57610100808354040283529160200191610695565b820191906000526020600020905b81548152906001019060200180831161067857829003601f168201915b505050505081526020016002820180546106ae9061290f565b80601f01602080910402602001604051908101604052809291908181526020018280546106da9061290f565b80156107275780601f106106fc57610100808354040283529160200191610727565b820191906000526020600020905b81548152906001019060200180831161070a57829003601f168201915b505050505081526020016003820180546107409061290f565b80601f016020809104026020016040519081016040528092919081815260200182805461076c9061290f565b80156107b95780601f1061078e576101008083540402835291602001916107b9565b820191906000526020600020905b81548152906001019060200180831161079c57829003601f168201915b505050505081526020016004820180546107d29061290f565b80601f01602080910402602001604051908101604052809291908181526020018280546107fe9061290f565b801561084b5780601f106108205761010080835404028352916020019161084b565b820191906000526020600020905b81548152906001019060200180831161082e57829003601f168201915b505050505081526020016005820180546108649061290f565b80601f01602080910402602001604051908101604052809291908181526020018280546108909061290f565b80156108dd5780601f106108b2576101008083540402835291602001916108dd565b820191906000526020600020905b8154815290600101906020018083116108c057829003601f168201915b505050505081526020016006820180546108f69061290f565b80601f01602080910402602001604051908101604052809291908181526020018280546109229061290f565b801561096f5780601f106109445761010080835404028352916020019161096f565b820191906000526020600020905b81548152906001019060200180831161095257829003601f168201915b505050505081526020016007820180546109889061290f565b80601f01602080910402602001604051908101604052809291908181526020018280546109b49061290f565b8015610a015780601f106109d657610100808354040283529160200191610a01565b820191906000526020600020905b8154815290600101906020018083116109e457829003601f168201915b50505050508152602001600882018054610a1a9061290f565b80601f0160208091040260200160405190810160405280929190818152602001828054610a469061290f565b8015610a935780601f10610a6857610100808354040283529160200191610a93565b820191906000526020600020905b815481529060010190602001808311610a7657829003601f168201915b505050505081525050828281518110610ad5577f4e487b7100000000000000000000000000000000000000000000000000000000600052603260045260246000fd5b60200260200101819052508080610aeb90612941565b915050610505565b50809250505090565b6000600183604051610b0e9190612641565b908152602001604051809103902060405180610120016040529081600082018054610b389061290f565b80601f0160208091040260200160405190810160405280929190818152602001828054610b649061290f565b8015610bb15780601f10610b8657610100808354040283529160200191610bb1565b820191906000526020600020905b815481529060010190602001808311610b9457829003601f168201915b50505050508152602001600182018054610bca9061290f565b80601f0160208091040260200160405190810160405280929190818152602001828054610bf69061290f565b8015610c435780601f10610c1857610100808354040283529160200191610c43565b820191906000526020600020905b815481529060010190602001808311610c2657829003601f168201915b50505050508152602001600282018054610c5c9061290f565b80601f0160208091040260200160405190810160405280929190818152602001828054610c889061290f565b8015610cd55780601f10610caa57610100808354040283529160200191610cd5565b820191906000526020600020905b815481529060010190602001808311610cb857829003601f168201915b50505050508152602001600382018054610cee9061290f565b80601f0160208091040260200160405190810160405280929190818152602001828054610d1a9061290f565b8015610d675780601f10610d3c57610100808354040283529160200191610d67565b820191906000526020600020905b815481529060010190602001808311610d4a57829003601f168201915b50505050508152602001600482018054610d809061290f565b80601f0160208091040260200160405190810160405280929190818152602001828054610dac9061290f565b8015610df95780601f10610dce57610100808354040283529160200191610df9565b820191906000526020600020905b815481529060010190602001808311610ddc57829003601f168201915b50505050508152602001600582018054610e129061290f565b80601f0160208091040260200160405190810160405280929190818152602001828054610e3e9061290f565b8015610e8b5780601f10610e6057610100808354040283529160200191610e8b565b820191906000526020600020905b815481529060010190602001808311610e6e57829003601f168201915b50505050508152602001600682018054610ea49061290f565b80601f0160208091040260200160405190810160405280929190818152602001828054610ed09061290f565b8015610f1d5780601f10610ef257610100808354040283529160200191610f1d565b820191906000526020600020905b815481529060010190602001808311610f0057829003601f168201915b50505050508152602001600782018054610f369061290f565b80601f0160208091040260200160405190810160405280929190818152602001828054610f629061290f565b8015610faf5780601f10610f8457610100808354040283529160200191610faf565b820191906000526020600020905b815481529060010190602001808311610f9257829003601f168201915b50505050508152602001600882018054610fc89061290f565b80601f0160208091040260200160405190810160405280929190818152602001828054610ff49061290f565b80156110415780601f1061101657610100808354040283529160200191611041565b820191906000526020600020905b81548152906001019060200180831161102457829003601f168201915b5050505050815250509050600081600001515111611094576040517f08c379a000000000000000000000000000000000000000000000000000000000815260040161108b9061273f565b60405180910390fd5b6000826040516020016110a79190612641565b604051602081830303815290604052805190602001208260e001516040516020016110d29190612641565b604051602081830303815290604052805190602001201490503373ffffffffffffffffffffffffffffffffffffffff167ff26b0adae3323e420dfac3e283392a8eb06e93d0a70990f71859de28be1f9088854284604051611135939291906126c1565b60405180910390a28061117d576040517f08c379a00000000000000000000000000000000000000000000000000000000081526004016111749061271f565b60405180910390fd5b50505050565b60008054906101000a900473ffffffffffffffffffffffffffffffffffffffff1673ffffffffffffffffffffffffffffffffffffffff163373ffffffffffffffffffffffffffffffffffffffff1614611211576040517f08c379a0000000000000000000000000000000000000000000000000000000008152600401611208906126ff565b60405180910390fd5b600060018a6040516112239190612641565b9081526020016040518091039020905060008160000180546112449061290f565b905011611286576040517f08c379a000000000000000000000000000000000000000000000000000000000815260040161127d9061273f565b60405180910390fd5b8881600101908051906020019061129e929190611d29565b50878160020190805190602001906112b7929190611d29565b50868160030190805190602001906112d0929190611d29565b50858160040190805190602001906112e9929190611d29565b5084816005019080519060200190611302929190611d29565b508381600601908051906020019061131b929190611d29565b5082816007019080519060200190611334929190611d29565b508181600801908051906020019061134d929190611d29565b503373ffffffffffffffffffffffffffffffffffffffff167f8295d7c4a6a6f12825552de2e03e841dfeb954780281d5e7c1b817812e0945d18b42604051611396929190612691565b60405180910390a250505050505050505050565b60008054906101000a900473ffffffffffffffffffffffffffffffffffffffff1673ffffffffffffffffffffffffffffffffffffffff163373ffffffffffffffffffffffffffffffffffffffff1614611438576040517f08c379a000000000000000000000000000000000000000000000000000000000815260040161142f906126ff565b60405180910390fd5b600060018260405161144a9190612641565b908152602001604051809103902060000180546114669061290f565b9050116114a8576040517f08c379a000000000000000000000000000000000000000000000000000000000815260040161149f9061273f565b60405180910390fd5b6001816040516114b89190612641565b9081526020016040518091039020600080820160006114d79190611dfb565b6001820160006114e79190611dfb565b6002820160006114f79190611dfb565b6003820160006115079190611dfb565b6004820160006115179190611dfb565b6005820160006115279190611dfb565b6006820160006115379190611dfb565b6007820160006115479190611dfb565b6008820160006115579190611dfb565b505060005b60028054905081101561171f578160405160200161157a9190612641565b60405160208183030381529060405280519060200120600282815481106115ca577f4e487b7100000000000000000000000000000000000000000000000000000000600052603260045260246000fd5b906000526020600020016040516020016115e49190612658565b60405160208183030381529060405280519060200120141561170c57600260016002805490506116149190612883565b8154811061164b577f4e487b7100000000000000000000000000000000000000000000000000000000600052603260045260246000fd5b906000526020600020016002828154811061168f577f4e487b7100000000000000000000000000000000000000000000000000000000600052603260045260246000fd5b906000526020600020019080546116a59061290f565b6116b0929190611e3b565b5060028054806116e9577f4e487b7100000000000000000000000000000000000000000000000000000000600052603160045260246000fd5b6001900381819060005260206000200160006117059190611dfb565b905561171f565b808061171790612941565b91505061155c565b503373ffffffffffffffffffffffffffffffffffffffff167fee9332967e095be32bc4ca5b2d9a05d970d1a6bfdf212953acefe45c7eeaa4898242604051611768929190612691565b60405180910390a250565b6000600280549050905090565b611788611daf565b600060018360405161179a9190612641565b9081526020016040518091039020604051806101200160405290816000820180546117c49061290f565b80601f01602080910402602001604051908101604052809291908181526020018280546117f09061290f565b801561183d5780601f106118125761010080835404028352916020019161183d565b820191906000526020600020905b81548152906001019060200180831161182057829003601f168201915b505050505081526020016001820180546118569061290f565b80601f01602080910402602001604051908101604052809291908181526020018280546118829061290f565b80156118cf5780601f106118a4576101008083540402835291602001916118cf565b820191906000526020600020905b8154815290600101906020018083116118b257829003601f168201915b505050505081526020016002820180546118e89061290f565b80601f01602080910402602001604051908101604052809291908181526020018280546119149061290f565b80156119615780601f1061193657610100808354040283529160200191611961565b820191906000526020600020905b81548152906001019060200180831161194457829003601f168201915b5050505050815260200160038201805461197a9061290f565b80601f01602080910402602001604051908101604052809291908181526020018280546119a69061290f565b80156119f35780601f106119c8576101008083540402835291602001916119f3565b820191906000526020600020905b8154815290600101906020018083116119d657829003601f168201915b50505050508152602001600482018054611a0c9061290f565b80601f0160208091040260200160405190810160405280929190818152602001828054611a389061290f565b8015611a855780601f10611a5a57610100808354040283529160200191611a85565b820191906000526020600020905b815481529060010190602001808311611a6857829003601f168201915b50505050508152602001600582018054611a9e9061290f565b80601f0160208091040260200160405190810160405280929190818152602001828054611aca9061290f565b8015611b175780601f10611aec57610100808354040283529160200191611b17565b820191906000526020600020905b815481529060010190602001808311611afa57829003601f168201915b50505050508152602001600682018054611b309061290f565b80601f0160208091040260200160405190810160405280929190818152602001828054611b5c9061290f565b8015611ba95780601f10611b7e57610100808354040283529160200191611ba9565b820191906000526020600020905b815481529060010190602001808311611b8c57829003601f168201915b50505050508152602001600782018054611bc29061290f565b80601f0160208091040260200160405190810160405280929190818152602001828054611bee9061290f565b8015611c3b5780601f10611c1057610100808354040283529160200191611c3b565b820191906000526020600020905b815481529060010190602001808311611c1e57829003601f168201915b50505050508152602001600882018054611c549061290f565b80601f0160208091040260200160405190810160405280929190818152602001828054611c809061290f565b8015611ccd5780601f10611ca257610100808354040283529160200191611ccd565b820191906000526020600020905b815481529060010190602001808311611cb057829003601f168201915b5050505050815250509050600081600001515111611d20576040517f08c379a0000000000000000000000000000000000000000000000000000000008152600401611d179061273f565b60405180910390fd5b80915050919050565b828054611d359061290f565b90600052602060002090601f016020900481019282611d575760008555611d9e565b82601f10611d7057805160ff1916838001178555611d9e565b82800160010185558215611d9e579182015b82811115611d9d578251825591602001919060010190611d82565b5b509050611dab9190611ec8565b5090565b6040518061012001604052806060815260200160608152602001606081526020016060815260200160608152602001606081526020016060815260200160608152602001606081525090565b508054611e079061290f565b6000825580601f10611e195750611e38565b601f016020900490600052602060002090810190611e379190611ec8565b5b50565b828054611e479061290f565b90600052602060002090601f016020900481019282611e695760008555611eb7565b82601f10611e7a5780548555611eb7565b82800160010185558215611eb757600052602060002091601f016020900482015b82811115611eb6578254825591600101919060010190611e9b565b5b509050611ec49190611ec8565b5090565b5b80821115611ee1576000816000905550600101611ec9565b5090565b6000611ef8611ef3846127cd565b61279c565b905082815260208101848484011115611f1057600080fd5b611f1b8482856128cd565b509392505050565b600082601f830112611f3457600080fd5b8135611f44848260208601611ee5565b91505092915050565b600060208284031215611f5f57600080fd5b600082013567ffffffffffffffff811115611f7957600080fd5b611f8584828501611f23565b91505092915050565b60008060408385031215611fa157600080fd5b600083013567ffffffffffffffff811115611fbb57600080fd5b611fc785828601611f23565b925050602083013567ffffffffffffffff811115611fe457600080fd5b611ff085828601611f23565b9150509250929050565b60008060008060008060008060006101208a8c03121561201957600080fd5b60008a013567ffffffffffffffff81111561203357600080fd5b61203f8c828d01611f23565b99505060208a013567ffffffffffffffff81111561205c57600080fd5b6120688c828d01611f23565b98505060408a013567ffffffffffffffff81111561208557600080fd5b6120918c828d01611f23565b97505060608a013567ffffffffffffffff8111156120ae57600080fd5b6120ba8c828d01611f23565b96505060808a013567ffffffffffffffff8111156120d757600080fd5b6120e38c828d01611f23565b95505060a08a013567ffffffffffffffff81111561210057600080fd5b61210c8c828d01611f23565b94505060c08a013567ffffffffffffffff81111561212957600080fd5b6121358c828d01611f23565b93505060e08a013567ffffffffffffffff81111561215257600080fd5b61215e8c828d01611f23565b9250506101008a013567ffffffffffffffff81111561217c57600080fd5b6121888c828d01611f23565b9150509295985092959850929598565b60006121a48383612438565b905092915050565b60006121b782612822565b6121c18185612845565b9350836020820285016121d3856127fd565b8060005b8581101561220f57848403895281516121f08582612198565b94506121fb83612838565b925060208a019950506001810190506121d7565b50829750879550505050505092915050565b61222a816128b7565b82525050565b600061223b8261282d565b6122458185612856565b93506122558185602086016128dc565b61225e81612a17565b840191505092915050565b60006122748261282d565b61227e8185612867565b935061228e8185602086016128dc565b61229781612a17565b840191505092915050565b60006122ad8261282d565b6122b78185612878565b93506122c78185602086016128dc565b80840191505092915050565b600081546122e08161290f565b6122ea8186612878565b94506001821660008114612305576001811461231657612349565b60ff19831686528186019350612349565b61231f8561280d565b60005b8381101561234157815481890152600182019150602081019050612322565b838801955050505b50505092915050565b600061235f602283612867565b91507f4f6e6c792061646d696e2063616e20706572666f726d2074686973206163746960008301527f6f6e0000000000000000000000000000000000000000000000000000000000006020830152604082019050919050565b60006123c5601f83612867565b91507f4365727469666963617465206861736820646f6573206e6f74206d61746368006000830152602082019050919050565b6000612405601583612867565b91507f4365727469666963617465206e6f7420666f756e6400000000000000000000006000830152602082019050919050565b60006101208301600083015184820360008601526124568282612230565b915050602083015184820360208601526124708282612230565b9150506040830151848203604086015261248a8282612230565b915050606083015184820360608601526124a48282612230565b915050608083015184820360808601526124be8282612230565b91505060a083015184820360a08601526124d88282612230565b91505060c083015184820360c08601526124f28282612230565b91505060e083015184820360e086015261250c8282612230565b9150506101008301518482036101008601526125288282612230565b9150508091505092915050565b60006101208301600083015184820360008601526125538282612230565b9150506020830151848203602086015261256d8282612230565b915050604083015184820360408601526125878282612230565b915050606083015184820360608601526125a18282612230565b915050608083015184820360808601526125bb8282612230565b91505060a083015184820360a08601526125d58282612230565b91505060c083015184820360c08601526125ef8282612230565b91505060e083015184820360e08601526126098282612230565b9150506101008301518482036101008601526126258282612230565b9150508091505092915050565b61263b816128c3565b82525050565b600061264d82846122a2565b915081905092915050565b600061266482846122d3565b915081905092915050565b6000602082019050818103600083015261268981846121ac565b905092915050565b600060408201905081810360008301526126ab8185612269565b90506126ba6020830184612632565b9392505050565b600060608201905081810360008301526126db8186612269565b90506126ea6020830185612632565b6126f76040830184612221565b949350505050565b6000602082019050818103600083015261271881612352565b9050919050565b60006020820190508181036000830152612738816123b8565b9050919050565b60006020820190508181036000830152612758816123f8565b9050919050565b600060208201905081810360008301526127798184612535565b905092915050565b60006020820190506127966000830184612632565b92915050565b6000604051905081810181811067ffffffffffffffff821117156127c3576127c26129e8565b5b8060405250919050565b600067ffffffffffffffff8211156127e8576127e76129e8565b5b601f19601f8301169050602081019050919050565b6000819050602082019050919050565b60008190508160005260206000209050919050565b600081519050919050565b600081519050919050565b6000602082019050919050565b600082825260208201905092915050565b600082825260208201905092915050565b600082825260208201905092915050565b600081905092915050565b600061288e826128c3565b9150612899836128c3565b9250828210156128ac576128ab61298a565b5b828203905092915050565b60008115159050919050565b6000819050919050565b82818337600083830152505050565b60005b838110156128fa5780820151818401526020810190506128df565b83811115612909576000848401525b50505050565b6000600282049050600182168061292757607f821691505b6020821081141561293b5761293a6129b9565b5b50919050565b600061294c826128c3565b91507fffffffffffffffffffffffffffffffffffffffffffffffffffffffffffffffff82141561297f5761297e61298a565b5b600182019050919050565b7f4e487b7100000000000000000000000000000000000000000000000000000000600052601160045260246000fd5b7f4e487b7100000000000000000000000000000000000000000000000000000000600052602260045260246000fd5b7f4e487b7100000000000000000000000000000000000000000000000000000000600052604160045260246000fd5b6000601f19601f830116905091905056fea2646970667358221220f5938e923a6da88f70546b7665507fa1c42c23254e62e9b751787e338692858764736f6c63430008000033",
  "immutableReferences": {},
  "source": "// SPDX-License-Identifier: MIT\npragma solidity ^0.8.0;\n\ncontract CertificateRegistry {\n    address private admin;\n\n    struct Certificate {\n        string serialNumber;\n        string name;\n        string certCID; // IPFS CID for the PDF\n        string icNumber;\n        string studentId;\n        string courseName;\n        string issuedDate;\n        string certHash; // Hash of the certificate PDF\n        string transCID; // IPFS CID for the transcript\n    }\n\n    mapping(string => Certificate) private certificates;\n    string[] private certificateSerialNumbers; // To store all serial numbers\n\n    // Events for tracking transactions\n    event CertificateRegistered(\n        string serialNumber,\n        address indexed sender,\n        uint256 timestamp\n    );\n\n    event CertificateUpdated(\n        string serialNumber,\n        address indexed sender,\n        uint256 timestamp\n    );\n\n    event CertificateDeleted(\n        string serialNumber,\n        address indexed sender,\n        uint256 timestamp\n    );\n\n    event CertificateVerified(\n        string serialNumber,\n        address indexed verifier,\n        uint256 timestamp,\n        bool verified\n    );\n\n    modifier onlyAdmin() {\n        require(msg.sender == admin, \"Only admin can perform this action\");\n        _;\n    }\n\n    constructor() {\n        admin = msg.sender;\n    }\n\n    function registerCertificate(\n        string memory serialNumber,\n        string memory name,\n        string memory certCID,\n        string memory icNumber,\n        string memory studentId,\n        string memory courseName,\n        string memory issuedDate,\n        string memory certHash,\n        string memory transCID\n    ) public onlyAdmin {\n        certificates[serialNumber] = Certificate(\n            serialNumber,\n            name,\n            certCID,\n            icNumber,\n            studentId,\n            courseName,\n            issuedDate,\n            certHash,\n            transCID\n        );\n        certificateSerialNumbers.push(serialNumber);\n\n        emit CertificateRegistered(serialNumber, msg.sender, block.timestamp);\n    }\n\n    function getCertificate(string memory serialNumber)\n        public\n        view\n        returns (Certificate memory)\n    {\n        Certificate memory cert = certificates[serialNumber];\n        require(bytes(cert.serialNumber).length > 0, \"Certificate not found\");\n        return cert;\n    }\n\n    function getAllCertificates() public view onlyAdmin returns (Certificate[] memory) {\n        uint256 length = certificateSerialNumbers.length;\n        Certificate[] memory allCertificates = new Certificate[](length);\n\n        for (uint256 i = 0; i < length; i++) {\n            allCertificates[i] = certificates[certificateSerialNumbers[i]];\n        }\n\n        return allCertificates;\n    }\n\n    function verifyCertificate(string memory serialNumber, string memory providedHash) public {\n        Certificate memory cert = certificates[serialNumber];\n        require(bytes(cert.serialNumber).length > 0, \"Certificate not found\");\n\n        bool isVerified = keccak256(abi.encodePacked(cert.certHash)) == keccak256(abi.encodePacked(providedHash));\n\n        emit CertificateVerified(serialNumber, msg.sender, block.timestamp, isVerified);\n\n        require(isVerified, \"Certificate hash does not match\");\n    }\n\n    function updateCertificate(\n        string memory serialNumber,\n        string memory newName,\n        string memory newCertCID,\n        string memory newIcNumber,\n        string memory newStudentId,\n        string memory newCourseName,\n        string memory newIssuedDate,\n        string memory newCertHash,\n        string memory newTransCID\n    ) public onlyAdmin {\n        Certificate storage cert = certificates[serialNumber];\n        require(bytes(cert.serialNumber).length > 0, \"Certificate not found\");\n\n        cert.name = newName;\n        cert.certCID = newCertCID;\n        cert.icNumber = newIcNumber;\n        cert.studentId = newStudentId;\n        cert.courseName = newCourseName;\n        cert.issuedDate = newIssuedDate;\n        cert.certHash = newCertHash;\n        cert.transCID = newTransCID;\n\n        emit CertificateUpdated(serialNumber, msg.sender, block.timestamp);\n    }\n\n    function deleteCertificate(string memory serialNumber) public onlyAdmin {\n        require(bytes(certificates[serialNumber].serialNumber).length > 0, \"Certificate not found\");\n\n        delete certificates[serialNumber];\n\n        for (uint256 i = 0; i < certificateSerialNumbers.length; i++) {\n            if (keccak256(abi.encodePacked(certificateSerialNumbers[i])) == keccak256(abi.encodePacked(serialNumber))) {\n                certificateSerialNumbers[i] = certificateSerialNumbers[certificateSerialNumbers.length - 1];\n                certificateSerialNumbers.pop();\n                break;\n            }\n        }\n\n        emit CertificateDeleted(serialNumber, msg.sender, block.timestamp);\n    }\n\n    function getCertificatesCount() public view returns (uint256) {\n        return certificateSerialNumbers.length;\n    }\n}\n",
  "sourcePath": "C:\\xampp\\htdocs\\laravel-react-blockchain\\react-frontend\\blockchain\\contracts\\CertificateRegistry.sol",
  "compiler": {
    "name": "solc",
    "version": "0.8.0+commit.c7dfd78e.Emscripten.clang"
  },
  "schemaVersion": "3.4.16",
  "updatedAt": "2025-02-11T15:52:28.638Z",
  "networkType": "ethereum",
  "devdoc": {
    "kind": "dev",
    "methods": {},
    "version": 1
  },
  "userdoc": {
    "kind": "user",
    "methods": {},
    "version": 1
  }
}