{
  "contractName": "CertificateRegistry",
  "abi": [
    {
      "inputs": [],
      "stateMutability": "nonpayable",
      "type": "constructor"
    },
    {
      "anonymous": false,
      "inputs": [
        {
          "indexed": false,
          "internalType": "string",
          "name": "serialNumber",
          "type": "string"
        },
        {
          "indexed": true,
          "internalType": "address",
          "name": "sender",
          "type": "address"
        },
        {
          "indexed": false,
          "internalType": "uint256",
          "name": "timestamp",
          "type": "uint256"
        }
      ],
      "name": "CertificateDeleted",
      "type": "event"
    },
    {
      "anonymous": false,
      "inputs": [
        {
          "indexed": false,
          "internalType": "string",
          "name": "serialNumber",
          "type": "string"
        },
        {
          "indexed": true,
          "internalType": "address",
          "name": "sender",
          "type": "address"
        },
        {
          "indexed": false,
          "internalType": "uint256",
          "name": "timestamp",
          "type": "uint256"
        }
      ],
      "name": "CertificateRegistered",
      "type": "event"
    },
    {
      "anonymous": false,
      "inputs": [
        {
          "indexed": false,
          "internalType": "string",
          "name": "serialNumber",
          "type": "string"
        },
        {
          "indexed": true,
          "internalType": "address",
          "name": "sender",
          "type": "address"
        },
        {
          "indexed": false,
          "internalType": "uint256",
          "name": "timestamp",
          "type": "uint256"
        }
      ],
      "name": "CertificateUpdated",
      "type": "event"
    },
    {
      "anonymous": false,
      "inputs": [
        {
          "indexed": false,
          "internalType": "string",
          "name": "serialNumber",
          "type": "string"
        },
        {
          "indexed": true,
          "internalType": "address",
          "name": "verifier",
          "type": "address"
        },
        {
          "indexed": false,
          "internalType": "uint256",
          "name": "timestamp",
          "type": "uint256"
        },
        {
          "indexed": false,
          "internalType": "bool",
          "name": "verified",
          "type": "bool"
        }
      ],
      "name": "CertificateVerified",
      "type": "event"
    },
    {
      "inputs": [
        {
          "internalType": "string",
          "name": "serialNumber",
          "type": "string"
        },
        {
          "internalType": "string",
          "name": "name",
          "type": "string"
        },
        {
          "internalType": "string",
          "name": "cid",
          "type": "string"
        },
        {
          "internalType": "string",
          "name": "icNumber",
          "type": "string"
        },
        {
          "internalType": "string",
          "name": "studentId",
          "type": "string"
        },
        {
          "internalType": "string",
          "name": "courseName",
          "type": "string"
        },
        {
          "internalType": "string",
          "name": "issuedDate",
          "type": "string"
        },
        {
          "internalType": "string",
          "name": "certHash",
          "type": "string"
        }
      ],
      "name": "registerCertificate",
      "outputs": [],
      "stateMutability": "nonpayable",
      "type": "function"
    },
    {
      "inputs": [
        {
          "internalType": "string",
          "name": "serialNumber",
          "type": "string"
        }
      ],
      "name": "getCertificate",
      "outputs": [
        {
          "components": [
            {
              "internalType": "string",
              "name": "serialNumber",
              "type": "string"
            },
            {
              "internalType": "string",
              "name": "name",
              "type": "string"
            },
            {
              "internalType": "string",
              "name": "cid",
              "type": "string"
            },
            {
              "internalType": "string",
              "name": "icNumber",
              "type": "string"
            },
            {
              "internalType": "string",
              "name": "studentId",
              "type": "string"
            },
            {
              "internalType": "string",
              "name": "courseName",
              "type": "string"
            },
            {
              "internalType": "string",
              "name": "issuedDate",
              "type": "string"
            },
            {
              "internalType": "string",
              "name": "certHash",
              "type": "string"
            }
          ],
          "internalType": "struct CertificateRegistry.Certificate",
          "name": "",
          "type": "tuple"
        }
      ],
      "stateMutability": "view",
      "type": "function",
      "constant": true
    },
    {
      "inputs": [],
      "name": "getAllCertificates",
      "outputs": [
        {
          "components": [
            {
              "internalType": "string",
              "name": "serialNumber",
              "type": "string"
            },
            {
              "internalType": "string",
              "name": "name",
              "type": "string"
            },
            {
              "internalType": "string",
              "name": "cid",
              "type": "string"
            },
            {
              "internalType": "string",
              "name": "icNumber",
              "type": "string"
            },
            {
              "internalType": "string",
              "name": "studentId",
              "type": "string"
            },
            {
              "internalType": "string",
              "name": "courseName",
              "type": "string"
            },
            {
              "internalType": "string",
              "name": "issuedDate",
              "type": "string"
            },
            {
              "internalType": "string",
              "name": "certHash",
              "type": "string"
            }
          ],
          "internalType": "struct CertificateRegistry.Certificate[]",
          "name": "",
          "type": "tuple[]"
        }
      ],
      "stateMutability": "view",
      "type": "function",
      "constant": true
    },
    {
      "inputs": [
        {
          "internalType": "string",
          "name": "serialNumber",
          "type": "string"
        },
        {
          "internalType": "string",
          "name": "providedHash",
          "type": "string"
        }
      ],
      "name": "verifyCertificate",
      "outputs": [],
      "stateMutability": "nonpayable",
      "type": "function"
    },
    {
      "inputs": [
        {
          "internalType": "string",
          "name": "serialNumber",
          "type": "string"
        },
        {
          "internalType": "string",
          "name": "newName",
          "type": "string"
        },
        {
          "internalType": "string",
          "name": "newCid",
          "type": "string"
        },
        {
          "internalType": "string",
          "name": "newIcNumber",
          "type": "string"
        },
        {
          "internalType": "string",
          "name": "newStudentId",
          "type": "string"
        },
        {
          "internalType": "string",
          "name": "newCourseName",
          "type": "string"
        },
        {
          "internalType": "string",
          "name": "newIssuedDate",
          "type": "string"
        },
        {
          "internalType": "string",
          "name": "newCertHash",
          "type": "string"
        }
      ],
      "name": "updateCertificate",
      "outputs": [],
      "stateMutability": "nonpayable",
      "type": "function"
    },
    {
      "inputs": [
        {
          "internalType": "string",
          "name": "serialNumber",
          "type": "string"
        }
      ],
      "name": "deleteCertificate",
      "outputs": [],
      "stateMutability": "nonpayable",
      "type": "function"
    },
    {
      "inputs": [],
      "name": "getCertificatesCount",
      "outputs": [
        {
          "internalType": "uint256",
          "name": "",
          "type": "uint256"
        }
      ],
      "stateMutability": "view",
      "type": "function",
      "constant": true
    }
  ],
  "bytecode": "0x608060405234801561001057600080fd5b50336000806101000a81548173ffffffffffffffffffffffffffffffffffffffff021916908373ffffffffffffffffffffffffffffffffffffffff1602179055506127ee806100606000396000f3fe608060405234801561001057600080fd5b506004361061007d5760003560e01c806381f6bf7d1161005b57806381f6bf7d146100d857806387f1f66d146100f45780638fb03a0214610110578063ed0f2e751461012e5761007d565b806313fcfe80146100825780632751f71b146100a057806368d4410a146100bc575b600080fd5b61008a61015e565b60405161009791906123ff565b60405180910390f35b6100ba60048036038101906100b59190611d82565b6107de565b005b6100d660048036038101906100d19190611dee565b610dd3565b005b6100f260048036038101906100ed9190611d41565b61103a565b005b61010e60048036038101906101099190611dee565b6113f3565b005b610118611600565b6040516101259190612511565b60405180910390f35b61014860048036038101906101439190611d41565b61160d565b60405161015591906124ef565b60405180910390f35b606060008054906101000a900473ffffffffffffffffffffffffffffffffffffffff1673ffffffffffffffffffffffffffffffffffffffff163373ffffffffffffffffffffffffffffffffffffffff16146101ee576040517f08c379a00000000000000000000000000000000000000000000000000000000081526004016101e59061248f565b60405180910390fd5b6000600280549050905060008167ffffffffffffffff81111561023a577f4e487b7100000000000000000000000000000000000000000000000000000000600052604160045260246000fd5b60405190808252806020026020018201604052801561027357816020015b610260611b24565b8152602001906001900390816102585790505b50905060005b828110156107d5576001600282815481106102bd577f4e487b7100000000000000000000000000000000000000000000000000000000600052603260045260246000fd5b906000526020600020016040516102d491906123e8565b9081526020016040518091039020604051806101000160405290816000820180546102fe9061269f565b80601f016020809104026020016040519081016040528092919081815260200182805461032a9061269f565b80156103775780601f1061034c57610100808354040283529160200191610377565b820191906000526020600020905b81548152906001019060200180831161035a57829003601f168201915b505050505081526020016001820180546103909061269f565b80601f01602080910402602001604051908101604052809291908181526020018280546103bc9061269f565b80156104095780601f106103de57610100808354040283529160200191610409565b820191906000526020600020905b8154815290600101906020018083116103ec57829003601f168201915b505050505081526020016002820180546104229061269f565b80601f016020809104026020016040519081016040528092919081815260200182805461044e9061269f565b801561049b5780601f106104705761010080835404028352916020019161049b565b820191906000526020600020905b81548152906001019060200180831161047e57829003601f168201915b505050505081526020016003820180546104b49061269f565b80601f01602080910402602001604051908101604052809291908181526020018280546104e09061269f565b801561052d5780601f106105025761010080835404028352916020019161052d565b820191906000526020600020905b81548152906001019060200180831161051057829003601f168201915b505050505081526020016004820180546105469061269f565b80601f01602080910402602001604051908101604052809291908181526020018280546105729061269f565b80156105bf5780601f10610594576101008083540402835291602001916105bf565b820191906000526020600020905b8154815290600101906020018083116105a257829003601f168201915b505050505081526020016005820180546105d89061269f565b80601f01602080910402602001604051908101604052809291908181526020018280546106049061269f565b80156106515780601f1061062657610100808354040283529160200191610651565b820191906000526020600020905b81548152906001019060200180831161063457829003601f168201915b5050505050815260200160068201805461066a9061269f565b80601f01602080910402602001604051908101604052809291908181526020018280546106969061269f565b80156106e35780601f106106b8576101008083540402835291602001916106e3565b820191906000526020600020905b8154815290600101906020018083116106c657829003601f168201915b505050505081526020016007820180546106fc9061269f565b80601f01602080910402602001604051908101604052809291908181526020018280546107289061269f565b80156107755780601f1061074a57610100808354040283529160200191610775565b820191906000526020600020905b81548152906001019060200180831161075857829003601f168201915b5050505050815250508282815181106107b7577f4e487b7100000000000000000000000000000000000000000000000000000000600052603260045260246000fd5b602002602001018190525080806107cd906126d1565b915050610279565b50809250505090565b60006001836040516107f091906123d1565b90815260200160405180910390206040518061010001604052908160008201805461081a9061269f565b80601f01602080910402602001604051908101604052809291908181526020018280546108469061269f565b80156108935780601f1061086857610100808354040283529160200191610893565b820191906000526020600020905b81548152906001019060200180831161087657829003601f168201915b505050505081526020016001820180546108ac9061269f565b80601f01602080910402602001604051908101604052809291908181526020018280546108d89061269f565b80156109255780601f106108fa57610100808354040283529160200191610925565b820191906000526020600020905b81548152906001019060200180831161090857829003601f168201915b5050505050815260200160028201805461093e9061269f565b80601f016020809104026020016040519081016040528092919081815260200182805461096a9061269f565b80156109b75780601f1061098c576101008083540402835291602001916109b7565b820191906000526020600020905b81548152906001019060200180831161099a57829003601f168201915b505050505081526020016003820180546109d09061269f565b80601f01602080910402602001604051908101604052809291908181526020018280546109fc9061269f565b8015610a495780601f10610a1e57610100808354040283529160200191610a49565b820191906000526020600020905b815481529060010190602001808311610a2c57829003601f168201915b50505050508152602001600482018054610a629061269f565b80601f0160208091040260200160405190810160405280929190818152602001828054610a8e9061269f565b8015610adb5780601f10610ab057610100808354040283529160200191610adb565b820191906000526020600020905b815481529060010190602001808311610abe57829003601f168201915b50505050508152602001600582018054610af49061269f565b80601f0160208091040260200160405190810160405280929190818152602001828054610b209061269f565b8015610b6d5780601f10610b4257610100808354040283529160200191610b6d565b820191906000526020600020905b815481529060010190602001808311610b5057829003601f168201915b50505050508152602001600682018054610b869061269f565b80601f0160208091040260200160405190810160405280929190818152602001828054610bb29061269f565b8015610bff5780601f10610bd457610100808354040283529160200191610bff565b820191906000526020600020905b815481529060010190602001808311610be257829003601f168201915b50505050508152602001600782018054610c189061269f565b80601f0160208091040260200160405190810160405280929190818152602001828054610c449061269f565b8015610c915780601f10610c6657610100808354040283529160200191610c91565b820191906000526020600020905b815481529060010190602001808311610c7457829003601f168201915b5050505050815250509050600081600001515111610ce4576040517f08c379a0000000000000000000000000000000000000000000000000000000008152600401610cdb906124cf565b60405180910390fd5b600082604051602001610cf791906123d1565b604051602081830303815290604052805190602001208260e00151604051602001610d2291906123d1565b604051602081830303815290604052805190602001201490503373ffffffffffffffffffffffffffffffffffffffff167ff26b0adae3323e420dfac3e283392a8eb06e93d0a70990f71859de28be1f9088854284604051610d8593929190612451565b60405180910390a280610dcd576040517f08c379a0000000000000000000000000000000000000000000000000000000008152600401610dc4906124af565b60405180910390fd5b50505050565b60008054906101000a900473ffffffffffffffffffffffffffffffffffffffff1673ffffffffffffffffffffffffffffffffffffffff163373ffffffffffffffffffffffffffffffffffffffff1614610e61576040517f08c379a0000000000000000000000000000000000000000000000000000000008152600401610e589061248f565b60405180910390fd5b60405180610100016040528089815260200188815260200187815260200186815260200185815260200184815260200183815260200182815250600189604051610eab91906123d1565b90815260200160405180910390206000820151816000019080519060200190610ed5929190611b69565b506020820151816001019080519060200190610ef2929190611b69565b506040820151816002019080519060200190610f0f929190611b69565b506060820151816003019080519060200190610f2c929190611b69565b506080820151816004019080519060200190610f49929190611b69565b5060a0820151816005019080519060200190610f66929190611b69565b5060c0820151816006019080519060200190610f83929190611b69565b5060e0820151816007019080519060200190610fa0929190611b69565b50905050600288908060018154018082558091505060019003906000526020600020016000909190919091509080519060200190610fdf929190611b69565b503373ffffffffffffffffffffffffffffffffffffffff167f2c3b79c6c7dd5508d583421a96c667d9c5c4b945572159f1f745aa99854863848942604051611028929190612421565b60405180910390a25050505050505050565b60008054906101000a900473ffffffffffffffffffffffffffffffffffffffff1673ffffffffffffffffffffffffffffffffffffffff163373ffffffffffffffffffffffffffffffffffffffff16146110c8576040517f08c379a00000000000000000000000000000000000000000000000000000000081526004016110bf9061248f565b60405180910390fd5b60006001826040516110da91906123d1565b908152602001604051809103902060000180546110f69061269f565b905011611138576040517f08c379a000000000000000000000000000000000000000000000000000000000815260040161112f906124cf565b60405180910390fd5b60018160405161114891906123d1565b9081526020016040518091039020600080820160006111679190611bef565b6001820160006111779190611bef565b6002820160006111879190611bef565b6003820160006111979190611bef565b6004820160006111a79190611bef565b6005820160006111b79190611bef565b6006820160006111c79190611bef565b6007820160006111d79190611bef565b505060005b60028054905081101561139f57816040516020016111fa91906123d1565b604051602081830303815290604052805190602001206002828154811061124a577f4e487b7100000000000000000000000000000000000000000000000000000000600052603260045260246000fd5b9060005260206000200160405160200161126491906123e8565b60405160208183030381529060405280519060200120141561138c57600260016002805490506112949190612613565b815481106112cb577f4e487b7100000000000000000000000000000000000000000000000000000000600052603260045260246000fd5b906000526020600020016002828154811061130f577f4e487b7100000000000000000000000000000000000000000000000000000000600052603260045260246000fd5b906000526020600020019080546113259061269f565b611330929190611c2f565b506002805480611369577f4e487b7100000000000000000000000000000000000000000000000000000000600052603160045260246000fd5b6001900381819060005260206000200160006113859190611bef565b905561139f565b8080611397906126d1565b9150506111dc565b503373ffffffffffffffffffffffffffffffffffffffff167fee9332967e095be32bc4ca5b2d9a05d970d1a6bfdf212953acefe45c7eeaa48982426040516113e8929190612421565b60405180910390a250565b60008054906101000a900473ffffffffffffffffffffffffffffffffffffffff1673ffffffffffffffffffffffffffffffffffffffff163373ffffffffffffffffffffffffffffffffffffffff1614611481576040517f08c379a00000000000000000000000000000000000000000000000000000000081526004016114789061248f565b60405180910390fd5b600060018960405161149391906123d1565b9081526020016040518091039020905060008160000180546114b49061269f565b9050116114f6576040517f08c379a00000000000000000000000000000000000000000000000000000000081526004016114ed906124cf565b60405180910390fd5b8781600101908051906020019061150e929190611b69565b5086816002019080519060200190611527929190611b69565b5085816003019080519060200190611540929190611b69565b5084816004019080519060200190611559929190611b69565b5083816005019080519060200190611572929190611b69565b508281600601908051906020019061158b929190611b69565b50818160070190805190602001906115a4929190611b69565b503373ffffffffffffffffffffffffffffffffffffffff167f8295d7c4a6a6f12825552de2e03e841dfeb954780281d5e7c1b817812e0945d18a426040516115ed929190612421565b60405180910390a2505050505050505050565b6000600280549050905090565b611615611b24565b600060018360405161162791906123d1565b9081526020016040518091039020604051806101000160405290816000820180546116519061269f565b80601f016020809104026020016040519081016040528092919081815260200182805461167d9061269f565b80156116ca5780601f1061169f576101008083540402835291602001916116ca565b820191906000526020600020905b8154815290600101906020018083116116ad57829003601f168201915b505050505081526020016001820180546116e39061269f565b80601f016020809104026020016040519081016040528092919081815260200182805461170f9061269f565b801561175c5780601f106117315761010080835404028352916020019161175c565b820191906000526020600020905b81548152906001019060200180831161173f57829003601f168201915b505050505081526020016002820180546117759061269f565b80601f01602080910402602001604051908101604052809291908181526020018280546117a19061269f565b80156117ee5780601f106117c3576101008083540402835291602001916117ee565b820191906000526020600020905b8154815290600101906020018083116117d157829003601f168201915b505050505081526020016003820180546118079061269f565b80601f01602080910402602001604051908101604052809291908181526020018280546118339061269f565b80156118805780601f1061185557610100808354040283529160200191611880565b820191906000526020600020905b81548152906001019060200180831161186357829003601f168201915b505050505081526020016004820180546118999061269f565b80601f01602080910402602001604051908101604052809291908181526020018280546118c59061269f565b80156119125780601f106118e757610100808354040283529160200191611912565b820191906000526020600020905b8154815290600101906020018083116118f557829003601f168201915b5050505050815260200160058201805461192b9061269f565b80601f01602080910402602001604051908101604052809291908181526020018280546119579061269f565b80156119a45780601f10611979576101008083540402835291602001916119a4565b820191906000526020600020905b81548152906001019060200180831161198757829003601f168201915b505050505081526020016006820180546119bd9061269f565b80601f01602080910402602001604051908101604052809291908181526020018280546119e99061269f565b8015611a365780601f10611a0b57610100808354040283529160200191611a36565b820191906000526020600020905b815481529060010190602001808311611a1957829003601f168201915b50505050508152602001600782018054611a4f9061269f565b80601f0160208091040260200160405190810160405280929190818152602001828054611a7b9061269f565b8015611ac85780601f10611a9d57610100808354040283529160200191611ac8565b820191906000526020600020905b815481529060010190602001808311611aab57829003601f168201915b5050505050815250509050600081600001515111611b1b576040517f08c379a0000000000000000000000000000000000000000000000000000000008152600401611b12906124cf565b60405180910390fd5b80915050919050565b60405180610100016040528060608152602001606081526020016060815260200160608152602001606081526020016060815260200160608152602001606081525090565b828054611b759061269f565b90600052602060002090601f016020900481019282611b975760008555611bde565b82601f10611bb057805160ff1916838001178555611bde565b82800160010185558215611bde579182015b82811115611bdd578251825591602001919060010190611bc2565b5b509050611beb9190611cbc565b5090565b508054611bfb9061269f565b6000825580601f10611c0d5750611c2c565b601f016020900490600052602060002090810190611c2b9190611cbc565b5b50565b828054611c3b9061269f565b90600052602060002090601f016020900481019282611c5d5760008555611cab565b82601f10611c6e5780548555611cab565b82800160010185558215611cab57600052602060002091601f016020900482015b82811115611caa578254825591600101919060010190611c8f565b5b509050611cb89190611cbc565b5090565b5b80821115611cd5576000816000905550600101611cbd565b5090565b6000611cec611ce78461255d565b61252c565b905082815260208101848484011115611d0457600080fd5b611d0f84828561265d565b509392505050565b600082601f830112611d2857600080fd5b8135611d38848260208601611cd9565b91505092915050565b600060208284031215611d5357600080fd5b600082013567ffffffffffffffff811115611d6d57600080fd5b611d7984828501611d17565b91505092915050565b60008060408385031215611d9557600080fd5b600083013567ffffffffffffffff811115611daf57600080fd5b611dbb85828601611d17565b925050602083013567ffffffffffffffff811115611dd857600080fd5b611de485828601611d17565b9150509250929050565b600080600080600080600080610100898b031215611e0b57600080fd5b600089013567ffffffffffffffff811115611e2557600080fd5b611e318b828c01611d17565b985050602089013567ffffffffffffffff811115611e4e57600080fd5b611e5a8b828c01611d17565b975050604089013567ffffffffffffffff811115611e7757600080fd5b611e838b828c01611d17565b965050606089013567ffffffffffffffff811115611ea057600080fd5b611eac8b828c01611d17565b955050608089013567ffffffffffffffff811115611ec957600080fd5b611ed58b828c01611d17565b94505060a089013567ffffffffffffffff811115611ef257600080fd5b611efe8b828c01611d17565b93505060c089013567ffffffffffffffff811115611f1b57600080fd5b611f278b828c01611d17565b92505060e089013567ffffffffffffffff811115611f4457600080fd5b611f508b828c01611d17565b9150509295985092959890939650565b6000611f6c8383612200565b905092915050565b6000611f7f826125b2565b611f8981856125d5565b935083602082028501611f9b8561258d565b8060005b85811015611fd75784840389528151611fb88582611f60565b9450611fc3836125c8565b925060208a01995050600181019050611f9f565b50829750879550505050505092915050565b611ff281612647565b82525050565b6000612003826125bd565b61200d81856125e6565b935061201d81856020860161266c565b612026816127a7565b840191505092915050565b600061203c826125bd565b61204681856125f7565b935061205681856020860161266c565b61205f816127a7565b840191505092915050565b6000612075826125bd565b61207f8185612608565b935061208f81856020860161266c565b80840191505092915050565b600081546120a88161269f565b6120b28186612608565b945060018216600081146120cd57600181146120de57612111565b60ff19831686528186019350612111565b6120e78561259d565b60005b83811015612109578154818901526001820191506020810190506120ea565b838801955050505b50505092915050565b60006121276022836125f7565b91507f4f6e6c792061646d696e2063616e20706572666f726d2074686973206163746960008301527f6f6e0000000000000000000000000000000000000000000000000000000000006020830152604082019050919050565b600061218d601f836125f7565b91507f4365727469666963617465206861736820646f6573206e6f74206d61746368006000830152602082019050919050565b60006121cd6015836125f7565b91507f4365727469666963617465206e6f7420666f756e6400000000000000000000006000830152602082019050919050565b600061010083016000830151848203600086015261221e8282611ff8565b915050602083015184820360208601526122388282611ff8565b915050604083015184820360408601526122528282611ff8565b9150506060830151848203606086015261226c8282611ff8565b915050608083015184820360808601526122868282611ff8565b91505060a083015184820360a08601526122a08282611ff8565b91505060c083015184820360c08601526122ba8282611ff8565b91505060e083015184820360e08601526122d48282611ff8565b9150508091505092915050565b60006101008301600083015184820360008601526122ff8282611ff8565b915050602083015184820360208601526123198282611ff8565b915050604083015184820360408601526123338282611ff8565b9150506060830151848203606086015261234d8282611ff8565b915050608083015184820360808601526123678282611ff8565b91505060a083015184820360a08601526123818282611ff8565b91505060c083015184820360c086015261239b8282611ff8565b91505060e083015184820360e08601526123b58282611ff8565b9150508091505092915050565b6123cb81612653565b82525050565b60006123dd828461206a565b915081905092915050565b60006123f4828461209b565b915081905092915050565b600060208201905081810360008301526124198184611f74565b905092915050565b6000604082019050818103600083015261243b8185612031565b905061244a60208301846123c2565b9392505050565b6000606082019050818103600083015261246b8186612031565b905061247a60208301856123c2565b6124876040830184611fe9565b949350505050565b600060208201905081810360008301526124a88161211a565b9050919050565b600060208201905081810360008301526124c881612180565b9050919050565b600060208201905081810360008301526124e8816121c0565b9050919050565b6000602082019050818103600083015261250981846122e1565b905092915050565b600060208201905061252660008301846123c2565b92915050565b6000604051905081810181811067ffffffffffffffff8211171561255357612552612778565b5b8060405250919050565b600067ffffffffffffffff82111561257857612577612778565b5b601f19601f8301169050602081019050919050565b6000819050602082019050919050565b60008190508160005260206000209050919050565b600081519050919050565b600081519050919050565b6000602082019050919050565b600082825260208201905092915050565b600082825260208201905092915050565b600082825260208201905092915050565b600081905092915050565b600061261e82612653565b915061262983612653565b92508282101561263c5761263b61271a565b5b828203905092915050565b60008115159050919050565b6000819050919050565b82818337600083830152505050565b60005b8381101561268a57808201518184015260208101905061266f565b83811115612699576000848401525b50505050565b600060028204905060018216806126b757607f821691505b602082108114156126cb576126ca612749565b5b50919050565b60006126dc82612653565b91507fffffffffffffffffffffffffffffffffffffffffffffffffffffffffffffffff82141561270f5761270e61271a565b5b600182019050919050565b7f4e487b7100000000000000000000000000000000000000000000000000000000600052601160045260246000fd5b7f4e487b7100000000000000000000000000000000000000000000000000000000600052602260045260246000fd5b7f4e487b7100000000000000000000000000000000000000000000000000000000600052604160045260246000fd5b6000601f19601f830116905091905056fea2646970667358221220024c3cb2bde23080d27ef56f2c49c656a58eae2c6883cb93cf846c80bc1db74d64736f6c63430008000033",
  "immutableReferences": {},
  "source": "// SPDX-License-Identifier: MIT\npragma solidity ^0.8.0;\n\ncontract CertificateRegistry {\n    address private admin;\n\n    struct Certificate {\n        string serialNumber;\n        string name;\n        string cid; // IPFS CID for the PDF\n        string icNumber;\n        string studentId;\n        string courseName;\n        string issuedDate;\n        string certHash; // Hash of the certificate PDF\n    }\n\n    mapping(string => Certificate) private certificates;\n    string[] private certificateSerialNumbers; // To store all serial numbers\n\n    // Events for tracking transactions\n    event CertificateRegistered(\n        string serialNumber,\n        address indexed sender,\n        uint256 timestamp\n    );\n\n    event CertificateUpdated(\n        string serialNumber,\n        address indexed sender,\n        uint256 timestamp\n    );\n\n    event CertificateDeleted(\n        string serialNumber,\n        address indexed sender,\n        uint256 timestamp\n    );\n\n    event CertificateVerified(\n        string serialNumber,\n        address indexed verifier,\n        uint256 timestamp,\n        bool verified\n    );\n\n    modifier onlyAdmin() {\n        require(msg.sender == admin, \"Only admin can perform this action\");\n        _;\n    }\n\n    constructor() {\n        admin = msg.sender;\n    }\n\n    function registerCertificate(\n        string memory serialNumber,\n        string memory name,\n        string memory cid,\n        string memory icNumber,\n        string memory studentId,\n        string memory courseName,\n        string memory issuedDate,\n        string memory certHash\n    ) public onlyAdmin {\n        certificates[serialNumber] = Certificate(\n            serialNumber,\n            name,\n            cid,\n            icNumber,\n            studentId,\n            courseName,\n            issuedDate,\n            certHash\n        );\n        certificateSerialNumbers.push(serialNumber);\n\n        emit CertificateRegistered(serialNumber, msg.sender, block.timestamp);\n    }\n\n    function getCertificate(string memory serialNumber)\n        public\n        view\n        returns (Certificate memory)\n    {\n        Certificate memory cert = certificates[serialNumber];\n        require(bytes(cert.serialNumber).length > 0, \"Certificate not found\");\n        return cert;\n    }\n\n    function getAllCertificates() public view onlyAdmin returns (Certificate[] memory) {\n        uint256 length = certificateSerialNumbers.length;\n        Certificate[] memory allCertificates = new Certificate[](length);\n\n        for (uint256 i = 0; i < length; i++) {\n            allCertificates[i] = certificates[certificateSerialNumbers[i]];\n        }\n\n        return allCertificates;\n    }\n\n    function verifyCertificate(string memory serialNumber, string memory providedHash) public {\n        Certificate memory cert = certificates[serialNumber];\n        require(bytes(cert.serialNumber).length > 0, \"Certificate not found\");\n\n        bool isVerified = keccak256(abi.encodePacked(cert.certHash)) == keccak256(abi.encodePacked(providedHash));\n\n        emit CertificateVerified(serialNumber, msg.sender, block.timestamp, isVerified);\n\n        require(isVerified, \"Certificate hash does not match\");\n    }\n\n    function updateCertificate(\n        string memory serialNumber,\n        string memory newName,\n        string memory newCid,\n        string memory newIcNumber,\n        string memory newStudentId,\n        string memory newCourseName,\n        string memory newIssuedDate,\n        string memory newCertHash\n    ) public onlyAdmin {\n        Certificate storage cert = certificates[serialNumber];\n        require(bytes(cert.serialNumber).length > 0, \"Certificate not found\");\n\n        cert.name = newName;\n        cert.cid = newCid;\n        cert.icNumber = newIcNumber;\n        cert.studentId = newStudentId;\n        cert.courseName = newCourseName;\n        cert.issuedDate = newIssuedDate;\n        cert.certHash = newCertHash;\n\n        emit CertificateUpdated(serialNumber, msg.sender, block.timestamp);\n    }\n\n    function deleteCertificate(string memory serialNumber) public onlyAdmin {\n        require(bytes(certificates[serialNumber].serialNumber).length > 0, \"Certificate not found\");\n\n        delete certificates[serialNumber];\n\n        for (uint256 i = 0; i < certificateSerialNumbers.length; i++) {\n            if (keccak256(abi.encodePacked(certificateSerialNumbers[i])) == keccak256(abi.encodePacked(serialNumber))) {\n                certificateSerialNumbers[i] = certificateSerialNumbers[certificateSerialNumbers.length - 1];\n                certificateSerialNumbers.pop();\n                break;\n            }\n        }\n\n        emit CertificateDeleted(serialNumber, msg.sender, block.timestamp);\n    }\n\n    function getCertificatesCount() public view returns (uint256) {\n        return certificateSerialNumbers.length;\n    }\n}\n",
  "sourcePath": "C:\\xampp\\htdocs\\laravel-react-blockchain\\react-frontend\\blockchain\\contracts\\CertificateRegistry.sol",
  "compiler": {
    "name": "solc",
    "version": "0.8.0+commit.c7dfd78e.Emscripten.clang"
  },
  "schemaVersion": "3.4.16",
  "updatedAt": "2024-12-18T05:31:02.688Z",
  "networkType": "ethereum",
  "devdoc": {
    "kind": "dev",
    "methods": {},
    "version": 1
  },
  "userdoc": {
    "kind": "user",
    "methods": {},
    "version": 1
  }
}