{
  "contractName": "CertificateRegistry",
  "abi": [
    {
      "inputs": [],
      "stateMutability": "nonpayable",
      "type": "constructor"
    },
    {
      "anonymous": false,
      "inputs": [
        {
          "indexed": false,
          "internalType": "string",
          "name": "serialNumber",
          "type": "string"
        },
        {
          "indexed": true,
          "internalType": "address",
          "name": "sender",
          "type": "address"
        },
        {
          "indexed": false,
          "internalType": "uint256",
          "name": "timestamp",
          "type": "uint256"
        }
      ],
      "name": "CertificateDeleted",
      "type": "event"
    },
    {
      "anonymous": false,
      "inputs": [
        {
          "indexed": false,
          "internalType": "string",
          "name": "serialNumber",
          "type": "string"
        },
        {
          "indexed": false,
          "internalType": "string",
          "name": "name",
          "type": "string"
        },
        {
          "indexed": false,
          "internalType": "string",
          "name": "cid",
          "type": "string"
        },
        {
          "indexed": false,
          "internalType": "string",
          "name": "icNumber",
          "type": "string"
        },
        {
          "indexed": false,
          "internalType": "string",
          "name": "studentId",
          "type": "string"
        },
        {
          "indexed": false,
          "internalType": "string",
          "name": "courseName",
          "type": "string"
        },
        {
          "indexed": false,
          "internalType": "string",
          "name": "issuedDate",
          "type": "string"
        },
        {
          "indexed": true,
          "internalType": "address",
          "name": "sender",
          "type": "address"
        },
        {
          "indexed": false,
          "internalType": "uint256",
          "name": "timestamp",
          "type": "uint256"
        }
      ],
      "name": "CertificateRegistered",
      "type": "event"
    },
    {
      "anonymous": false,
      "inputs": [
        {
          "indexed": false,
          "internalType": "string",
          "name": "serialNumber",
          "type": "string"
        },
        {
          "indexed": false,
          "internalType": "string",
          "name": "newName",
          "type": "string"
        },
        {
          "indexed": false,
          "internalType": "string",
          "name": "newCid",
          "type": "string"
        },
        {
          "indexed": false,
          "internalType": "string",
          "name": "newIcNumber",
          "type": "string"
        },
        {
          "indexed": false,
          "internalType": "string",
          "name": "newStudentId",
          "type": "string"
        },
        {
          "indexed": false,
          "internalType": "string",
          "name": "newCourseName",
          "type": "string"
        },
        {
          "indexed": false,
          "internalType": "string",
          "name": "newIssuedDate",
          "type": "string"
        },
        {
          "indexed": true,
          "internalType": "address",
          "name": "sender",
          "type": "address"
        },
        {
          "indexed": false,
          "internalType": "uint256",
          "name": "timestamp",
          "type": "uint256"
        }
      ],
      "name": "CertificateUpdated",
      "type": "event"
    },
    {
      "anonymous": false,
      "inputs": [
        {
          "indexed": false,
          "internalType": "string",
          "name": "serialNumber",
          "type": "string"
        },
        {
          "indexed": true,
          "internalType": "address",
          "name": "verifier",
          "type": "address"
        },
        {
          "indexed": false,
          "internalType": "uint256",
          "name": "timestamp",
          "type": "uint256"
        }
      ],
      "name": "CertificateVerified",
      "type": "event"
    },
    {
      "inputs": [
        {
          "internalType": "string",
          "name": "serialNumber",
          "type": "string"
        },
        {
          "internalType": "string",
          "name": "name",
          "type": "string"
        },
        {
          "internalType": "string",
          "name": "cid",
          "type": "string"
        },
        {
          "internalType": "string",
          "name": "icNumber",
          "type": "string"
        },
        {
          "internalType": "string",
          "name": "studentId",
          "type": "string"
        },
        {
          "internalType": "string",
          "name": "courseName",
          "type": "string"
        },
        {
          "internalType": "string",
          "name": "issuedDate",
          "type": "string"
        }
      ],
      "name": "registerCertificate",
      "outputs": [],
      "stateMutability": "nonpayable",
      "type": "function"
    },
    {
      "inputs": [
        {
          "internalType": "string",
          "name": "serialNumber",
          "type": "string"
        }
      ],
      "name": "getCertificate",
      "outputs": [
        {
          "internalType": "string",
          "name": "",
          "type": "string"
        },
        {
          "internalType": "string",
          "name": "",
          "type": "string"
        },
        {
          "internalType": "string",
          "name": "",
          "type": "string"
        },
        {
          "internalType": "string",
          "name": "",
          "type": "string"
        },
        {
          "internalType": "string",
          "name": "",
          "type": "string"
        },
        {
          "internalType": "string",
          "name": "",
          "type": "string"
        },
        {
          "internalType": "string",
          "name": "",
          "type": "string"
        }
      ],
      "stateMutability": "view",
      "type": "function",
      "constant": true
    },
    {
      "inputs": [],
      "name": "getAllCertificates",
      "outputs": [
        {
          "internalType": "string[]",
          "name": "",
          "type": "string[]"
        },
        {
          "internalType": "string[]",
          "name": "",
          "type": "string[]"
        },
        {
          "internalType": "string[]",
          "name": "",
          "type": "string[]"
        },
        {
          "internalType": "string[]",
          "name": "",
          "type": "string[]"
        },
        {
          "internalType": "string[]",
          "name": "",
          "type": "string[]"
        },
        {
          "internalType": "string[]",
          "name": "",
          "type": "string[]"
        },
        {
          "internalType": "string[]",
          "name": "",
          "type": "string[]"
        }
      ],
      "stateMutability": "view",
      "type": "function",
      "constant": true
    },
    {
      "inputs": [
        {
          "internalType": "string",
          "name": "serialNumber",
          "type": "string"
        }
      ],
      "name": "verifyCertificate",
      "outputs": [],
      "stateMutability": "nonpayable",
      "type": "function"
    },
    {
      "inputs": [
        {
          "internalType": "string",
          "name": "serialNumber",
          "type": "string"
        },
        {
          "internalType": "string",
          "name": "newName",
          "type": "string"
        },
        {
          "internalType": "string",
          "name": "newCid",
          "type": "string"
        },
        {
          "internalType": "string",
          "name": "newIcNumber",
          "type": "string"
        },
        {
          "internalType": "string",
          "name": "newStudentId",
          "type": "string"
        },
        {
          "internalType": "string",
          "name": "newCourseName",
          "type": "string"
        },
        {
          "internalType": "string",
          "name": "newIssuedDate",
          "type": "string"
        }
      ],
      "name": "updateCertificate",
      "outputs": [],
      "stateMutability": "nonpayable",
      "type": "function"
    },
    {
      "inputs": [
        {
          "internalType": "string",
          "name": "serialNumber",
          "type": "string"
        }
      ],
      "name": "deleteCertificate",
      "outputs": [],
      "stateMutability": "nonpayable",
      "type": "function"
    },
    {
      "inputs": [],
      "name": "getCertificatesCount",
      "outputs": [
        {
          "internalType": "uint256",
          "name": "",
          "type": "uint256"
        }
      ],
      "stateMutability": "view",
      "type": "function",
      "constant": true
    }
  ],
  "bytecode": "0x608060405234801561001057600080fd5b50336000806101000a81548173ffffffffffffffffffffffffffffffffffffffff021916908373ffffffffffffffffffffffffffffffffffffffff160217905550612551806100606000396000f3fe608060405234801561001057600080fd5b506004361061007d5760003560e01c80638b23d8751161005b5780638b23d875146100de5780638fb03a02146100fa578063c8b633be14610118578063ed0f2e75146101345761007d565b806313fcfe801461008257806380b54209146100a657806381f6bf7d146100c2575b600080fd5b61008a61016a565b60405161009d9796959493929190612021565b60405180910390f35b6100c060048036038101906100bb9190611c4d565b610c97565b005b6100dc60048036038101906100d79190611c0c565b610e96565b005b6100f860048036038101906100f39190611c0c565b61125b565b005b61010261131e565b60405161010f9190612280565b60405180910390f35b610132600480360381019061012d9190611c4d565b61132b565b005b61014e60048036038101906101499190611c0c565b611579565b60405161016197969594939291906120c1565b60405180910390f35b606080606080606080606060008054906101000a900473ffffffffffffffffffffffffffffffffffffffff1673ffffffffffffffffffffffffffffffffffffffff163373ffffffffffffffffffffffffffffffffffffffff1614610203576040517f08c379a00000000000000000000000000000000000000000000000000000000081526004016101fa90612240565b60405180910390fd5b6000600280549050905060008167ffffffffffffffff81111561024f577f4e487b7100000000000000000000000000000000000000000000000000000000600052604160045260246000fd5b60405190808252806020026020018201604052801561028257816020015b606081526020019060019003908161026d5790505b50905060008267ffffffffffffffff8111156102c7577f4e487b7100000000000000000000000000000000000000000000000000000000600052604160045260246000fd5b6040519080825280602002602001820160405280156102fa57816020015b60608152602001906001900390816102e55790505b50905060008367ffffffffffffffff81111561033f577f4e487b7100000000000000000000000000000000000000000000000000000000600052604160045260246000fd5b60405190808252806020026020018201604052801561037257816020015b606081526020019060019003908161035d5790505b50905060008467ffffffffffffffff8111156103b7577f4e487b7100000000000000000000000000000000000000000000000000000000600052604160045260246000fd5b6040519080825280602002602001820160405280156103ea57816020015b60608152602001906001900390816103d55790505b50905060008567ffffffffffffffff81111561042f577f4e487b7100000000000000000000000000000000000000000000000000000000600052604160045260246000fd5b60405190808252806020026020018201604052801561046257816020015b606081526020019060019003908161044d5790505b50905060008667ffffffffffffffff8111156104a7577f4e487b7100000000000000000000000000000000000000000000000000000000600052604160045260246000fd5b6040519080825280602002602001820160405280156104da57816020015b60608152602001906001900390816104c55790505b50905060008767ffffffffffffffff81111561051f577f4e487b7100000000000000000000000000000000000000000000000000000000600052604160045260246000fd5b60405190808252806020026020018201604052801561055257816020015b606081526020019060019003908161053d5790505b50905060005b88811015610c705760006002828154811061059c577f4e487b7100000000000000000000000000000000000000000000000000000000600052603260045260246000fd5b9060005260206000200180546105b190612402565b80601f01602080910402602001604051908101604052809291908181526020018280546105dd90612402565b801561062a5780601f106105ff5761010080835404028352916020019161062a565b820191906000526020600020905b81548152906001019060200180831161060d57829003601f168201915b5050505050905060006001826040516106439190611ff3565b90815260200160405180910390206040518060e001604052908160008201805461066c90612402565b80601f016020809104026020016040519081016040528092919081815260200182805461069890612402565b80156106e55780601f106106ba576101008083540402835291602001916106e5565b820191906000526020600020905b8154815290600101906020018083116106c857829003601f168201915b505050505081526020016001820180546106fe90612402565b80601f016020809104026020016040519081016040528092919081815260200182805461072a90612402565b80156107775780601f1061074c57610100808354040283529160200191610777565b820191906000526020600020905b81548152906001019060200180831161075a57829003601f168201915b5050505050815260200160028201805461079090612402565b80601f01602080910402602001604051908101604052809291908181526020018280546107bc90612402565b80156108095780601f106107de57610100808354040283529160200191610809565b820191906000526020600020905b8154815290600101906020018083116107ec57829003601f168201915b5050505050815260200160038201805461082290612402565b80601f016020809104026020016040519081016040528092919081815260200182805461084e90612402565b801561089b5780601f106108705761010080835404028352916020019161089b565b820191906000526020600020905b81548152906001019060200180831161087e57829003601f168201915b505050505081526020016004820180546108b490612402565b80601f01602080910402602001604051908101604052809291908181526020018280546108e090612402565b801561092d5780601f106109025761010080835404028352916020019161092d565b820191906000526020600020905b81548152906001019060200180831161091057829003601f168201915b5050505050815260200160058201805461094690612402565b80601f016020809104026020016040519081016040528092919081815260200182805461097290612402565b80156109bf5780601f10610994576101008083540402835291602001916109bf565b820191906000526020600020905b8154815290600101906020018083116109a257829003601f168201915b505050505081526020016006820180546109d890612402565b80601f0160208091040260200160405190810160405280929190818152602001828054610a0490612402565b8015610a515780601f10610a2657610100808354040283529160200191610a51565b820191906000526020600020905b815481529060010190602001808311610a3457829003601f168201915b505050505081525050905080600001518a8481518110610a9a577f4e487b7100000000000000000000000000000000000000000000000000000000600052603260045260246000fd5b60200260200101819052508060200151898481518110610ae3577f4e487b7100000000000000000000000000000000000000000000000000000000600052603260045260246000fd5b60200260200101819052508060400151888481518110610b2c577f4e487b7100000000000000000000000000000000000000000000000000000000600052603260045260246000fd5b60200260200101819052508060600151878481518110610b75577f4e487b7100000000000000000000000000000000000000000000000000000000600052603260045260246000fd5b60200260200101819052508060800151868481518110610bbe577f4e487b7100000000000000000000000000000000000000000000000000000000600052603260045260246000fd5b60200260200101819052508060a00151858481518110610c07577f4e487b7100000000000000000000000000000000000000000000000000000000600052603260045260246000fd5b60200260200101819052508060c00151848481518110610c50577f4e487b7100000000000000000000000000000000000000000000000000000000600052603260045260246000fd5b602002602001018190525050508080610c6890612434565b915050610558565b50868686868686869e509e509e509e509e509e509e50505050505050505090919293949596565b60008054906101000a900473ffffffffffffffffffffffffffffffffffffffff1673ffffffffffffffffffffffffffffffffffffffff163373ffffffffffffffffffffffffffffffffffffffff1614610d25576040517f08c379a0000000000000000000000000000000000000000000000000000000008152600401610d1c90612240565b60405180910390fd5b6000600188604051610d379190611ff3565b908152602001604051809103902090506000816000018054610d5890612402565b905011610d9a576040517f08c379a0000000000000000000000000000000000000000000000000000000008152600401610d9190612260565b60405180910390fd5b86816001019080519060200190610db2929190611a34565b5085816002019080519060200190610dcb929190611a34565b5084816003019080519060200190610de4929190611a34565b5083816004019080519060200190610dfd929190611a34565b5082816005019080519060200190610e16929190611a34565b5081816006019080519060200190610e2f929190611a34565b503373ffffffffffffffffffffffffffffffffffffffff167fbccac5b8461b11272532f07c9beed5318fc3b20f01404f33c2848ce9f2b88fe08989898989898942604051610e84989796959493929190612161565b60405180910390a25050505050505050565b60008054906101000a900473ffffffffffffffffffffffffffffffffffffffff1673ffffffffffffffffffffffffffffffffffffffff163373ffffffffffffffffffffffffffffffffffffffff1614610f24576040517f08c379a0000000000000000000000000000000000000000000000000000000008152600401610f1b90612240565b60405180910390fd5b6000600182604051610f369190611ff3565b90815260200160405180910390206000018054610f5290612402565b905011610f94576040517f08c379a0000000000000000000000000000000000000000000000000000000008152600401610f8b90612260565b60405180910390fd5b600181604051610fa49190611ff3565b908152602001604051809103902060008082016000610fc39190611aba565b600182016000610fd39190611aba565b600282016000610fe39190611aba565b600382016000610ff39190611aba565b6004820160006110039190611aba565b6005820160006110139190611aba565b6006820160006110239190611aba565b50506000600280549050905060005b6002805490508110156110f157826040516020016110509190611ff3565b60405160208183030381529060405280519060200120600282815481106110a0577f4e487b7100000000000000000000000000000000000000000000000000000000600052603260045260246000fd5b906000526020600020016040516020016110ba919061200a565b6040516020818303038152906040528051906020012014156110de578091506110f1565b80806110e990612434565b915050611032565b5060028054905081101561120757600260016002805490506111139190612382565b8154811061114a577f4e487b7100000000000000000000000000000000000000000000000000000000600052603260045260246000fd5b906000526020600020016002828154811061118e577f4e487b7100000000000000000000000000000000000000000000000000000000600052603260045260246000fd5b906000526020600020019080546111a490612402565b6111af929190611afa565b5060028054806111e8577f4e487b7100000000000000000000000000000000000000000000000000000000600052603160045260246000fd5b6001900381819060005260206000200160006112049190611aba565b90555b3373ffffffffffffffffffffffffffffffffffffffff167fee9332967e095be32bc4ca5b2d9a05d970d1a6bfdf212953acefe45c7eeaa489834260405161124f929190612210565b60405180910390a25050565b600060018260405161126d9190611ff3565b9081526020016040518091039020600001805461128990612402565b9050116112cb576040517f08c379a00000000000000000000000000000000000000000000000000000000081526004016112c290612260565b60405180910390fd5b3373ffffffffffffffffffffffffffffffffffffffff167f4113b24a839fba2595fe68667e4ba68a69c01f64bb51c034098ab9b2257bd77a8242604051611313929190612210565b60405180910390a250565b6000600280549050905090565b60008054906101000a900473ffffffffffffffffffffffffffffffffffffffff1673ffffffffffffffffffffffffffffffffffffffff163373ffffffffffffffffffffffffffffffffffffffff16146113b9576040517f08c379a00000000000000000000000000000000000000000000000000000000081526004016113b090612240565b60405180910390fd5b6040518060e00160405280888152602001878152602001868152602001858152602001848152602001838152602001828152506001886040516113fc9190611ff3565b90815260200160405180910390206000820151816000019080519060200190611426929190611a34565b506020820151816001019080519060200190611443929190611a34565b506040820151816002019080519060200190611460929190611a34565b50606082015181600301908051906020019061147d929190611a34565b50608082015181600401908051906020019061149a929190611a34565b5060a08201518160050190805190602001906114b7929190611a34565b5060c08201518160060190805190602001906114d4929190611a34565b50905050600287908060018154018082558091505060019003906000526020600020016000909190919091509080519060200190611513929190611a34565b503373ffffffffffffffffffffffffffffffffffffffff167f27f51b679099fbeb5e09154ff10fdc77d22d39d76eff1364d566a4de0cdf68288888888888888842604051611568989796959493929190612161565b60405180910390a250505050505050565b606080606080606080606060006001896040516115969190611ff3565b90815260200160405180910390206040518060e00160405290816000820180546115bf90612402565b80601f01602080910402602001604051908101604052809291908181526020018280546115eb90612402565b80156116385780601f1061160d57610100808354040283529160200191611638565b820191906000526020600020905b81548152906001019060200180831161161b57829003601f168201915b5050505050815260200160018201805461165190612402565b80601f016020809104026020016040519081016040528092919081815260200182805461167d90612402565b80156116ca5780601f1061169f576101008083540402835291602001916116ca565b820191906000526020600020905b8154815290600101906020018083116116ad57829003601f168201915b505050505081526020016002820180546116e390612402565b80601f016020809104026020016040519081016040528092919081815260200182805461170f90612402565b801561175c5780601f106117315761010080835404028352916020019161175c565b820191906000526020600020905b81548152906001019060200180831161173f57829003601f168201915b5050505050815260200160038201805461177590612402565b80601f01602080910402602001604051908101604052809291908181526020018280546117a190612402565b80156117ee5780601f106117c3576101008083540402835291602001916117ee565b820191906000526020600020905b8154815290600101906020018083116117d157829003601f168201915b5050505050815260200160048201805461180790612402565b80601f016020809104026020016040519081016040528092919081815260200182805461183390612402565b80156118805780601f1061185557610100808354040283529160200191611880565b820191906000526020600020905b81548152906001019060200180831161186357829003601f168201915b5050505050815260200160058201805461189990612402565b80601f01602080910402602001604051908101604052809291908181526020018280546118c590612402565b80156119125780601f106118e757610100808354040283529160200191611912565b820191906000526020600020905b8154815290600101906020018083116118f557829003601f168201915b5050505050815260200160068201805461192b90612402565b80601f016020809104026020016040519081016040528092919081815260200182805461195790612402565b80156119a45780601f10611979576101008083540402835291602001916119a4565b820191906000526020600020905b81548152906001019060200180831161198757829003601f168201915b50505050508152505090506000816000015151116119f7576040517f08c379a00000000000000000000000000000000000000000000000000000000081526004016119ee90612260565b60405180910390fd5b806000015181602001518260400151836060015184608001518560a001518660c00151975097509750975097509750975050919395979092949650565b828054611a4090612402565b90600052602060002090601f016020900481019282611a625760008555611aa9565b82601f10611a7b57805160ff1916838001178555611aa9565b82800160010185558215611aa9579182015b82811115611aa8578251825591602001919060010190611a8d565b5b509050611ab69190611b87565b5090565b508054611ac690612402565b6000825580601f10611ad85750611af7565b601f016020900490600052602060002090810190611af69190611b87565b5b50565b828054611b0690612402565b90600052602060002090601f016020900481019282611b285760008555611b76565b82601f10611b395780548555611b76565b82800160010185558215611b7657600052602060002091601f016020900482015b82811115611b75578254825591600101919060010190611b5a565b5b509050611b839190611b87565b5090565b5b80821115611ba0576000816000905550600101611b88565b5090565b6000611bb7611bb2846122cc565b61229b565b905082815260208101848484011115611bcf57600080fd5b611bda8482856123c0565b509392505050565b600082601f830112611bf357600080fd5b8135611c03848260208601611ba4565b91505092915050565b600060208284031215611c1e57600080fd5b600082013567ffffffffffffffff811115611c3857600080fd5b611c4484828501611be2565b91505092915050565b600080600080600080600060e0888a031215611c6857600080fd5b600088013567ffffffffffffffff811115611c8257600080fd5b611c8e8a828b01611be2565b975050602088013567ffffffffffffffff811115611cab57600080fd5b611cb78a828b01611be2565b965050604088013567ffffffffffffffff811115611cd457600080fd5b611ce08a828b01611be2565b955050606088013567ffffffffffffffff811115611cfd57600080fd5b611d098a828b01611be2565b945050608088013567ffffffffffffffff811115611d2657600080fd5b611d328a828b01611be2565b93505060a088013567ffffffffffffffff811115611d4f57600080fd5b611d5b8a828b01611be2565b92505060c088013567ffffffffffffffff811115611d7857600080fd5b611d848a828b01611be2565b91505092959891949750929550565b6000611d9f8383611e1c565b905092915050565b6000611db282612321565b611dbc8185612344565b935083602082028501611dce856122fc565b8060005b85811015611e0a5784840389528151611deb8582611d93565b9450611df683612337565b925060208a01995050600181019050611dd2565b50829750879550505050505092915050565b6000611e278261232c565b611e318185612355565b9350611e418185602086016123cf565b611e4a8161250a565b840191505092915050565b6000611e608261232c565b611e6a8185612366565b9350611e7a8185602086016123cf565b611e838161250a565b840191505092915050565b6000611e998261232c565b611ea38185612377565b9350611eb38185602086016123cf565b80840191505092915050565b60008154611ecc81612402565b611ed68186612377565b94506001821660008114611ef15760018114611f0257611f35565b60ff19831686528186019350611f35565b611f0b8561230c565b60005b83811015611f2d57815481890152600182019150602081019050611f0e565b838801955050505b50505092915050565b6000611f4b602283612366565b91507f4f6e6c792061646d696e2063616e20706572666f726d2074686973206163746960008301527f6f6e0000000000000000000000000000000000000000000000000000000000006020830152604082019050919050565b6000611fb1601583612366565b91507f4365727469666963617465206e6f7420666f756e6400000000000000000000006000830152602082019050919050565b611fed816123b6565b82525050565b6000611fff8284611e8e565b915081905092915050565b60006120168284611ebf565b915081905092915050565b600060e082019050818103600083015261203b818a611da7565b9050818103602083015261204f8189611da7565b905081810360408301526120638188611da7565b905081810360608301526120778187611da7565b9050818103608083015261208b8186611da7565b905081810360a083015261209f8185611da7565b905081810360c08301526120b38184611da7565b905098975050505050505050565b600060e08201905081810360008301526120db818a611e55565b905081810360208301526120ef8189611e55565b905081810360408301526121038188611e55565b905081810360608301526121178187611e55565b9050818103608083015261212b8186611e55565b905081810360a083015261213f8185611e55565b905081810360c08301526121538184611e55565b905098975050505050505050565b600061010082019050818103600083015261217c818b611e55565b90508181036020830152612190818a611e55565b905081810360408301526121a48189611e55565b905081810360608301526121b88188611e55565b905081810360808301526121cc8187611e55565b905081810360a08301526121e08186611e55565b905081810360c08301526121f48185611e55565b905061220360e0830184611fe4565b9998505050505050505050565b6000604082019050818103600083015261222a8185611e55565b90506122396020830184611fe4565b9392505050565b6000602082019050818103600083015261225981611f3e565b9050919050565b6000602082019050818103600083015261227981611fa4565b9050919050565b60006020820190506122956000830184611fe4565b92915050565b6000604051905081810181811067ffffffffffffffff821117156122c2576122c16124db565b5b8060405250919050565b600067ffffffffffffffff8211156122e7576122e66124db565b5b601f19601f8301169050602081019050919050565b6000819050602082019050919050565b60008190508160005260206000209050919050565b600081519050919050565b600081519050919050565b6000602082019050919050565b600082825260208201905092915050565b600082825260208201905092915050565b600082825260208201905092915050565b600081905092915050565b600061238d826123b6565b9150612398836123b6565b9250828210156123ab576123aa61247d565b5b828203905092915050565b6000819050919050565b82818337600083830152505050565b60005b838110156123ed5780820151818401526020810190506123d2565b838111156123fc576000848401525b50505050565b6000600282049050600182168061241a57607f821691505b6020821081141561242e5761242d6124ac565b5b50919050565b600061243f826123b6565b91507fffffffffffffffffffffffffffffffffffffffffffffffffffffffffffffffff8214156124725761247161247d565b5b600182019050919050565b7f4e487b7100000000000000000000000000000000000000000000000000000000600052601160045260246000fd5b7f4e487b7100000000000000000000000000000000000000000000000000000000600052602260045260246000fd5b7f4e487b7100000000000000000000000000000000000000000000000000000000600052604160045260246000fd5b6000601f19601f830116905091905056fea26469706673582212205a2ce7637720947ecba33adcde02e163dd9e5e32356a07b3b418ddcd5136280064736f6c63430008000033",
  "immutableReferences": {},
  "source": "// SPDX-License-Identifier: MIT\npragma solidity ^0.8.0;\n\ncontract CertificateRegistry {\n    address private admin;\n\n    struct Certificate {\n        string serialNumber;\n        string name;\n        string cid; // IPFS CID for the PDF\n        string icNumber;\n        string studentId;\n        string courseName;\n        string issuedDate;\n    }\n\n    mapping(string => Certificate) private certificates;\n    string[] private certificateSerialNumbers; // To store all serial numbers\n\n    // Events for tracking transactions\n    event CertificateRegistered(\n        string serialNumber,\n        string name,\n        string cid,\n        string icNumber,\n        string studentId,\n        string courseName,\n        string issuedDate,\n        address indexed sender,\n        uint256 timestamp\n    );\n    \n    event CertificateUpdated(\n        string serialNumber,\n        string newName,\n        string newCid,\n        string newIcNumber,\n        string newStudentId,\n        string newCourseName,\n        string newIssuedDate,\n        address indexed sender,\n        uint256 timestamp\n    );\n    \n    event CertificateDeleted(\n        string serialNumber,\n        address indexed sender,\n        uint256 timestamp\n    );\n\n    event CertificateVerified(\n        string serialNumber,\n        address indexed verifier,\n        uint256 timestamp\n    );\n\n    // Modifier to restrict access to only the admin\n    modifier onlyAdmin() {\n        require(msg.sender == admin, \"Only admin can perform this action\");\n        _;\n    }\n\n    // Constructor to set the contract deployer as admin\n    constructor() {\n        admin = msg.sender;\n    }\n\n    // Register a certificate (only admin)\n    function registerCertificate(\n        string memory serialNumber,\n        string memory name,\n        string memory cid,\n        string memory icNumber,\n        string memory studentId,\n        string memory courseName,\n        string memory issuedDate\n    ) public onlyAdmin {\n        certificates[serialNumber] = Certificate(\n            serialNumber, \n            name, \n            cid, \n            icNumber, \n            studentId, \n            courseName, \n            issuedDate\n        );\n        certificateSerialNumbers.push(serialNumber);\n        \n        emit CertificateRegistered(\n            serialNumber, \n            name, \n            cid, \n            icNumber, \n            studentId, \n            courseName, \n            issuedDate, \n            msg.sender, \n            block.timestamp\n        );\n    }\n\n    // Get a specific certificate\n    function getCertificate(\n        string memory serialNumber\n    )\n        public\n        view\n        returns (\n            string memory,\n            string memory,\n            string memory,\n            string memory,\n            string memory,\n            string memory,\n            string memory\n        )\n    {\n        Certificate memory cert = certificates[serialNumber];\n        require(bytes(cert.serialNumber).length > 0, \"Certificate not found\");\n        return (\n            cert.serialNumber,\n            cert.name,\n            cert.cid,\n            cert.icNumber,\n            cert.studentId,\n            cert.courseName,\n            cert.issuedDate\n        );\n    }\n\n    // Get all certificates' details (only admin)\n    function getAllCertificates()\n        public\n        view\n        onlyAdmin\n        returns (\n            string[] memory,\n            string[] memory,\n            string[] memory,\n            string[] memory,\n            string[] memory,\n            string[] memory,\n            string[] memory\n        )\n    {\n        uint256 length = certificateSerialNumbers.length;\n        string[] memory serialNumbers = new string[](length);\n        string[] memory names = new string[](length);\n        string[] memory cids = new string[](length);\n        string[] memory icNumbers = new string[](length);\n        string[] memory studentIds = new string[](length);\n        string[] memory courseNames = new string[](length);\n        string[] memory issuedDates = new string[](length);\n\n        for (uint256 i = 0; i < length; i++) {\n            string memory serialNumber = certificateSerialNumbers[i];\n            Certificate memory cert = certificates[serialNumber];\n            serialNumbers[i] = cert.serialNumber;\n            names[i] = cert.name;\n            cids[i] = cert.cid;\n            icNumbers[i] = cert.icNumber;\n            studentIds[i] = cert.studentId;\n            courseNames[i] = cert.courseName;\n            issuedDates[i] = cert.issuedDate;\n        }\n\n        return (\n            serialNumbers,\n            names,\n            cids,\n            icNumbers,\n            studentIds,\n            courseNames,\n            issuedDates\n        );\n    }\n\n    // Verify a certificate\n    function verifyCertificate(string memory serialNumber) public {\n        // Check if the certificate exists\n        require(bytes(certificates[serialNumber].serialNumber).length > 0, \"Certificate not found\");\n\n        // Emit an event to record the verification\n        emit CertificateVerified(serialNumber, msg.sender, block.timestamp);\n    }\n\n    // Update an existing certificate's details (only admin)\n    function updateCertificate(\n        string memory serialNumber,\n        string memory newName,\n        string memory newCid,\n        string memory newIcNumber,\n        string memory newStudentId,\n        string memory newCourseName,\n        string memory newIssuedDate\n    ) public onlyAdmin {\n        Certificate storage cert = certificates[serialNumber];\n        require(bytes(cert.serialNumber).length > 0, \"Certificate not found\");\n        cert.name = newName;\n        cert.cid = newCid;\n        cert.icNumber = newIcNumber;\n        cert.studentId = newStudentId;\n        cert.courseName = newCourseName;\n        cert.issuedDate = newIssuedDate;\n\n        emit CertificateUpdated(\n            serialNumber,\n            newName,\n            newCid,\n            newIcNumber,\n            newStudentId,\n            newCourseName,\n            newIssuedDate,\n            msg.sender,\n            block.timestamp\n        );\n    }\n\n    // Delete a certificate by serial number (only admin)\n    function deleteCertificate(string memory serialNumber) public onlyAdmin {\n        require(bytes(certificates[serialNumber].serialNumber).length > 0, \"Certificate not found\");\n        delete certificates[serialNumber];\n\n        uint256 indexToDelete = certificateSerialNumbers.length;\n        for (uint256 i = 0; i < certificateSerialNumbers.length; i++) {\n            if (keccak256(abi.encodePacked(certificateSerialNumbers[i])) == keccak256(abi.encodePacked(serialNumber))) {\n                indexToDelete = i;\n                break;\n            }\n        }\n\n        if (indexToDelete < certificateSerialNumbers.length) {\n            certificateSerialNumbers[indexToDelete] = certificateSerialNumbers[certificateSerialNumbers.length - 1];\n            certificateSerialNumbers.pop();\n        }\n\n        emit CertificateDeleted(serialNumber, msg.sender, block.timestamp);\n    }\n\n    // Get the count of all registered certificates\n    function getCertificatesCount() public view returns (uint256) {\n        return certificateSerialNumbers.length;\n    }\n}\n",
  "sourcePath": "C:\\xampp\\htdocs\\laravel-react-blockchain\\react-frontend\\blockchain\\contracts\\CertificateRegistry.sol",
  "compiler": {
    "name": "solc",
    "version": "0.8.0+commit.c7dfd78e.Emscripten.clang"
  },
  "schemaVersion": "3.4.16",
  "updatedAt": "2024-12-16T07:00:23.153Z",
  "networkType": "ethereum",
  "devdoc": {
    "kind": "dev",
    "methods": {},
    "version": 1
  },
  "userdoc": {
    "kind": "user",
    "methods": {},
    "version": 1
  }
}