{
  "contractName": "CertificateRegistry",
  "abi": [
    {
      "inputs": [
        {
          "internalType": "string",
          "name": "serialNumber",
          "type": "string"
        },
        {
          "internalType": "string",
          "name": "name",
          "type": "string"
        },
        {
          "internalType": "string",
          "name": "cid",
          "type": "string"
        }
      ],
      "name": "registerCertificate",
      "outputs": [],
      "stateMutability": "nonpayable",
      "type": "function"
    },
    {
      "inputs": [
        {
          "internalType": "string",
          "name": "serialNumber",
          "type": "string"
        }
      ],
      "name": "getCertificate",
      "outputs": [
        {
          "internalType": "string",
          "name": "",
          "type": "string"
        },
        {
          "internalType": "string",
          "name": "",
          "type": "string"
        },
        {
          "internalType": "string",
          "name": "",
          "type": "string"
        }
      ],
      "stateMutability": "view",
      "type": "function",
      "constant": true
    },
    {
      "inputs": [],
      "name": "getAllCertificates",
      "outputs": [
        {
          "internalType": "string[]",
          "name": "",
          "type": "string[]"
        },
        {
          "internalType": "string[]",
          "name": "",
          "type": "string[]"
        },
        {
          "internalType": "string[]",
          "name": "",
          "type": "string[]"
        }
      ],
      "stateMutability": "view",
      "type": "function",
      "constant": true
    }
  ],
  "bytecode": "0x608060405234801561001057600080fd5b50610fa0806100206000396000f3fe608060405234801561001057600080fd5b50600436106100415760003560e01c806313fcfe8014610046578063d6a12e6c14610066578063ed0f2e7514610082575b600080fd5b61004e6100b4565b60405161005d93929190610c7b565b60405180910390f35b610080600480360381019061007b9190610a61565b6105f5565b005b61009c60048036038101906100979190610a20565b6106c9565b6040516100ab93929190610cc7565b60405180910390f35b6060806060600060018054905067ffffffffffffffff811115610100577f4e487b7100000000000000000000000000000000000000000000000000000000600052604160045260246000fd5b60405190808252806020026020018201604052801561013357816020015b606081526020019060019003908161011e5790505b509050600060018054905067ffffffffffffffff81111561017d577f4e487b7100000000000000000000000000000000000000000000000000000000600052604160045260246000fd5b6040519080825280602002602001820160405280156101b057816020015b606081526020019060019003908161019b5790505b509050600060018054905067ffffffffffffffff8111156101fa577f4e487b7100000000000000000000000000000000000000000000000000000000600052604160045260246000fd5b60405190808252806020026020018201604052801561022d57816020015b60608152602001906001900390816102185790505b50905060005b6001805490508110156105e35760006001828154811061027c577f4e487b7100000000000000000000000000000000000000000000000000000000600052603260045260246000fd5b90600052602060002001805461029190610e51565b80601f01602080910402602001604051908101604052809291908181526020018280546102bd90610e51565b801561030a5780601f106102df5761010080835404028352916020019161030a565b820191906000526020600020905b8154815290600101906020018083116102ed57829003601f168201915b50505050509050600080826040516103229190610c64565b908152602001604051809103902060405180606001604052908160008201805461034b90610e51565b80601f016020809104026020016040519081016040528092919081815260200182805461037790610e51565b80156103c45780601f10610399576101008083540402835291602001916103c4565b820191906000526020600020905b8154815290600101906020018083116103a757829003601f168201915b505050505081526020016001820180546103dd90610e51565b80601f016020809104026020016040519081016040528092919081815260200182805461040990610e51565b80156104565780601f1061042b57610100808354040283529160200191610456565b820191906000526020600020905b81548152906001019060200180831161043957829003601f168201915b5050505050815260200160028201805461046f90610e51565b80601f016020809104026020016040519081016040528092919081815260200182805461049b90610e51565b80156104e85780601f106104bd576101008083540402835291602001916104e8565b820191906000526020600020905b8154815290600101906020018083116104cb57829003601f168201915b50505050508152505090508060000151868481518110610531577f4e487b7100000000000000000000000000000000000000000000000000000000600052603260045260246000fd5b6020026020010181905250806020015185848151811061057a577f4e487b7100000000000000000000000000000000000000000000000000000000600052603260045260246000fd5b602002602001018190525080604001518484815181106105c3577f4e487b7100000000000000000000000000000000000000000000000000000000600052603260045260246000fd5b6020026020010181905250505080806105db90610e83565b915050610233565b50828282955095509550505050909192565b6040518060600160405280848152602001838152602001828152506000846040516106209190610c64565b9081526020016040518091039020600082015181600001908051906020019061064a929190610915565b506020820151816001019080519060200190610667929190610915565b506040820151816002019080519060200190610684929190610915565b509050506001839080600181540180825580915050600190039060005260206000200160009091909190915090805190602001906106c3929190610915565b50505050565b6060806060600080856040516106df9190610c64565b908152602001604051809103902060405180606001604052908160008201805461070890610e51565b80601f016020809104026020016040519081016040528092919081815260200182805461073490610e51565b80156107815780601f1061075657610100808354040283529160200191610781565b820191906000526020600020905b81548152906001019060200180831161076457829003601f168201915b5050505050815260200160018201805461079a90610e51565b80601f01602080910402602001604051908101604052809291908181526020018280546107c690610e51565b80156108135780601f106107e857610100808354040283529160200191610813565b820191906000526020600020905b8154815290600101906020018083116107f657829003601f168201915b5050505050815260200160028201805461082c90610e51565b80601f016020809104026020016040519081016040528092919081815260200182805461085890610e51565b80156108a55780601f1061087a576101008083540402835291602001916108a5565b820191906000526020600020905b81548152906001019060200180831161088857829003601f168201915b50505050508152505090506000816000015151116108f8576040517f08c379a00000000000000000000000000000000000000000000000000000000081526004016108ef90610d13565b60405180910390fd5b806000015181602001518260400151935093509350509193909250565b82805461092190610e51565b90600052602060002090601f016020900481019282610943576000855561098a565b82601f1061095c57805160ff191683800117855561098a565b8280016001018555821561098a579182015b8281111561098957825182559160200191906001019061096e565b5b509050610997919061099b565b5090565b5b808211156109b457600081600090555060010161099c565b5090565b60006109cb6109c684610d64565b610d33565b9050828152602081018484840111156109e357600080fd5b6109ee848285610e0f565b509392505050565b600082601f830112610a0757600080fd5b8135610a178482602086016109b8565b91505092915050565b600060208284031215610a3257600080fd5b600082013567ffffffffffffffff811115610a4c57600080fd5b610a58848285016109f6565b91505092915050565b600080600060608486031215610a7657600080fd5b600084013567ffffffffffffffff811115610a9057600080fd5b610a9c868287016109f6565b935050602084013567ffffffffffffffff811115610ab957600080fd5b610ac5868287016109f6565b925050604084013567ffffffffffffffff811115610ae257600080fd5b610aee868287016109f6565b9150509250925092565b6000610b048383610b81565b905092915050565b6000610b1782610da4565b610b218185610dc7565b935083602082028501610b3385610d94565b8060005b85811015610b6f5784840389528151610b508582610af8565b9450610b5b83610dba565b925060208a01995050600181019050610b37565b50829750879550505050505092915050565b6000610b8c82610daf565b610b968185610dd8565b9350610ba6818560208601610e1e565b610baf81610f59565b840191505092915050565b6000610bc582610daf565b610bcf8185610de9565b9350610bdf818560208601610e1e565b610be881610f59565b840191505092915050565b6000610bfe82610daf565b610c088185610dfa565b9350610c18818560208601610e1e565b80840191505092915050565b6000610c31601583610de9565b91507f4365727469666963617465206e6f7420666f756e6400000000000000000000006000830152602082019050919050565b6000610c708284610bf3565b915081905092915050565b60006060820190508181036000830152610c958186610b0c565b90508181036020830152610ca98185610b0c565b90508181036040830152610cbd8184610b0c565b9050949350505050565b60006060820190508181036000830152610ce18186610bba565b90508181036020830152610cf58185610bba565b90508181036040830152610d098184610bba565b9050949350505050565b60006020820190508181036000830152610d2c81610c24565b9050919050565b6000604051905081810181811067ffffffffffffffff82111715610d5a57610d59610f2a565b5b8060405250919050565b600067ffffffffffffffff821115610d7f57610d7e610f2a565b5b601f19601f8301169050602081019050919050565b6000819050602082019050919050565b600081519050919050565b600081519050919050565b6000602082019050919050565b600082825260208201905092915050565b600082825260208201905092915050565b600082825260208201905092915050565b600081905092915050565b6000819050919050565b82818337600083830152505050565b60005b83811015610e3c578082015181840152602081019050610e21565b83811115610e4b576000848401525b50505050565b60006002820490506001821680610e6957607f821691505b60208210811415610e7d57610e7c610efb565b5b50919050565b6000610e8e82610e05565b91507fffffffffffffffffffffffffffffffffffffffffffffffffffffffffffffffff821415610ec157610ec0610ecc565b5b600182019050919050565b7f4e487b7100000000000000000000000000000000000000000000000000000000600052601160045260246000fd5b7f4e487b7100000000000000000000000000000000000000000000000000000000600052602260045260246000fd5b7f4e487b7100000000000000000000000000000000000000000000000000000000600052604160045260246000fd5b6000601f19601f830116905091905056fea264697066735822122072cb0a71e11351b38eb864c462e0aa606c151604cf63e3e76cc45e8328e0b1ed64736f6c63430008000033",
  "immutableReferences": {},
  "source": "// SPDX-License-Identifier: MIT\npragma solidity ^0.8.0;\n\ncontract CertificateRegistry {\n    struct Certificate {\n        string serialNumber;\n        string name;\n        string cid; // IPFS CID for the PDF\n    }\n\n    mapping(string => Certificate) private certificates;\n    string[] private certificateSerialNumbers; // To store all serial numbers\n\n    // Register a certificate\n    function registerCertificate(\n        string memory serialNumber,\n        string memory name,\n        string memory cid\n    ) public {\n        // Add the certificate to the mapping\n        certificates[serialNumber] = Certificate(serialNumber, name, cid);\n        \n        // Add the serial number to the array\n        certificateSerialNumbers.push(serialNumber);\n    }\n\n    // Get a specific certificate\n    function getCertificate(\n        string memory serialNumber\n    ) public view returns (string memory, string memory, string memory) {\n        Certificate memory cert = certificates[serialNumber];\n        require(bytes(cert.serialNumber).length > 0, \"Certificate not found\");\n        return (cert.serialNumber, cert.name, cert.cid);\n    }\n\n    // Get all certificates' details (serialNumber, name, and cid)\n    function getAllCertificates() public view returns (string[] memory, string[] memory, string[] memory) {\n        string[] memory serialNumbers = new string[](certificateSerialNumbers.length);\n        string[] memory names = new string[](certificateSerialNumbers.length);\n        string[] memory cids = new string[](certificateSerialNumbers.length);\n\n        for (uint i = 0; i < certificateSerialNumbers.length; i++) {\n            string memory serialNumber = certificateSerialNumbers[i];\n            Certificate memory cert = certificates[serialNumber];\n            serialNumbers[i] = cert.serialNumber;\n            names[i] = cert.name;\n            cids[i] = cert.cid;\n        }\n\n        return (serialNumbers, names, cids);\n    }\n}\n",
  "sourcePath": "C:\\xampp\\htdocs\\laravel-react-blockchain\\react-frontend\\blockchain\\contracts\\CertificateRegistry.sol",
  "compiler": {
    "name": "solc",
    "version": "0.8.0+commit.c7dfd78e.Emscripten.clang"
  },
  "schemaVersion": "3.4.16",
  "updatedAt": "2024-12-10T07:36:09.966Z",
  "networkType": "ethereum",
  "devdoc": {
    "kind": "dev",
    "methods": {},
    "version": 1
  },
  "userdoc": {
    "kind": "user",
    "methods": {},
    "version": 1
  }
}