{
  "contractName": "CertificateRegistry",
  "abi": [
    {
      "anonymous": false,
      "inputs": [
        {
          "indexed": false,
          "internalType": "string",
          "name": "serialNumber",
          "type": "string"
        },
        {
          "indexed": true,
          "internalType": "address",
          "name": "sender",
          "type": "address"
        },
        {
          "indexed": false,
          "internalType": "uint256",
          "name": "timestamp",
          "type": "uint256"
        }
      ],
      "name": "CertificateDeleted",
      "type": "event"
    },
    {
      "anonymous": false,
      "inputs": [
        {
          "indexed": false,
          "internalType": "string",
          "name": "serialNumber",
          "type": "string"
        },
        {
          "indexed": false,
          "internalType": "string",
          "name": "name",
          "type": "string"
        },
        {
          "indexed": false,
          "internalType": "string",
          "name": "cid",
          "type": "string"
        },
        {
          "indexed": false,
          "internalType": "string",
          "name": "icNumber",
          "type": "string"
        },
        {
          "indexed": false,
          "internalType": "string",
          "name": "studentId",
          "type": "string"
        },
        {
          "indexed": false,
          "internalType": "string",
          "name": "courseName",
          "type": "string"
        },
        {
          "indexed": false,
          "internalType": "string",
          "name": "issuedDate",
          "type": "string"
        },
        {
          "indexed": true,
          "internalType": "address",
          "name": "sender",
          "type": "address"
        },
        {
          "indexed": false,
          "internalType": "uint256",
          "name": "timestamp",
          "type": "uint256"
        }
      ],
      "name": "CertificateRegistered",
      "type": "event"
    },
    {
      "anonymous": false,
      "inputs": [
        {
          "indexed": false,
          "internalType": "string",
          "name": "serialNumber",
          "type": "string"
        },
        {
          "indexed": false,
          "internalType": "string",
          "name": "newName",
          "type": "string"
        },
        {
          "indexed": false,
          "internalType": "string",
          "name": "newCid",
          "type": "string"
        },
        {
          "indexed": false,
          "internalType": "string",
          "name": "newIcNumber",
          "type": "string"
        },
        {
          "indexed": false,
          "internalType": "string",
          "name": "newStudentId",
          "type": "string"
        },
        {
          "indexed": false,
          "internalType": "string",
          "name": "newCourseName",
          "type": "string"
        },
        {
          "indexed": false,
          "internalType": "string",
          "name": "newIssuedDate",
          "type": "string"
        },
        {
          "indexed": true,
          "internalType": "address",
          "name": "sender",
          "type": "address"
        },
        {
          "indexed": false,
          "internalType": "uint256",
          "name": "timestamp",
          "type": "uint256"
        }
      ],
      "name": "CertificateUpdated",
      "type": "event"
    },
    {
      "anonymous": false,
      "inputs": [
        {
          "indexed": false,
          "internalType": "string",
          "name": "serialNumber",
          "type": "string"
        },
        {
          "indexed": true,
          "internalType": "address",
          "name": "verifier",
          "type": "address"
        },
        {
          "indexed": false,
          "internalType": "uint256",
          "name": "timestamp",
          "type": "uint256"
        }
      ],
      "name": "CertificateVerified",
      "type": "event"
    },
    {
      "inputs": [
        {
          "internalType": "string",
          "name": "serialNumber",
          "type": "string"
        },
        {
          "internalType": "string",
          "name": "name",
          "type": "string"
        },
        {
          "internalType": "string",
          "name": "cid",
          "type": "string"
        },
        {
          "internalType": "string",
          "name": "icNumber",
          "type": "string"
        },
        {
          "internalType": "string",
          "name": "studentId",
          "type": "string"
        },
        {
          "internalType": "string",
          "name": "courseName",
          "type": "string"
        },
        {
          "internalType": "string",
          "name": "issuedDate",
          "type": "string"
        }
      ],
      "name": "registerCertificate",
      "outputs": [],
      "stateMutability": "nonpayable",
      "type": "function"
    },
    {
      "inputs": [
        {
          "internalType": "string",
          "name": "serialNumber",
          "type": "string"
        }
      ],
      "name": "getCertificate",
      "outputs": [
        {
          "internalType": "string",
          "name": "",
          "type": "string"
        },
        {
          "internalType": "string",
          "name": "",
          "type": "string"
        },
        {
          "internalType": "string",
          "name": "",
          "type": "string"
        },
        {
          "internalType": "string",
          "name": "",
          "type": "string"
        },
        {
          "internalType": "string",
          "name": "",
          "type": "string"
        },
        {
          "internalType": "string",
          "name": "",
          "type": "string"
        },
        {
          "internalType": "string",
          "name": "",
          "type": "string"
        }
      ],
      "stateMutability": "view",
      "type": "function",
      "constant": true
    },
    {
      "inputs": [],
      "name": "getAllCertificates",
      "outputs": [
        {
          "internalType": "string[]",
          "name": "",
          "type": "string[]"
        },
        {
          "internalType": "string[]",
          "name": "",
          "type": "string[]"
        },
        {
          "internalType": "string[]",
          "name": "",
          "type": "string[]"
        },
        {
          "internalType": "string[]",
          "name": "",
          "type": "string[]"
        },
        {
          "internalType": "string[]",
          "name": "",
          "type": "string[]"
        },
        {
          "internalType": "string[]",
          "name": "",
          "type": "string[]"
        },
        {
          "internalType": "string[]",
          "name": "",
          "type": "string[]"
        }
      ],
      "stateMutability": "view",
      "type": "function",
      "constant": true
    },
    {
      "inputs": [
        {
          "internalType": "string",
          "name": "serialNumber",
          "type": "string"
        }
      ],
      "name": "verifyCertificate",
      "outputs": [],
      "stateMutability": "nonpayable",
      "type": "function"
    },
    {
      "inputs": [
        {
          "internalType": "string",
          "name": "serialNumber",
          "type": "string"
        },
        {
          "internalType": "string",
          "name": "newName",
          "type": "string"
        },
        {
          "internalType": "string",
          "name": "newCid",
          "type": "string"
        },
        {
          "internalType": "string",
          "name": "newIcNumber",
          "type": "string"
        },
        {
          "internalType": "string",
          "name": "newStudentId",
          "type": "string"
        },
        {
          "internalType": "string",
          "name": "newCourseName",
          "type": "string"
        },
        {
          "internalType": "string",
          "name": "newIssuedDate",
          "type": "string"
        }
      ],
      "name": "updateCertificate",
      "outputs": [],
      "stateMutability": "nonpayable",
      "type": "function"
    },
    {
      "inputs": [
        {
          "internalType": "string",
          "name": "serialNumber",
          "type": "string"
        }
      ],
      "name": "deleteCertificate",
      "outputs": [],
      "stateMutability": "nonpayable",
      "type": "function"
    },
    {
      "inputs": [],
      "name": "getCertificatesCount",
      "outputs": [
        {
          "internalType": "uint256",
          "name": "",
          "type": "uint256"
        }
      ],
      "stateMutability": "view",
      "type": "function",
      "constant": true
    }
  ],
  "bytecode": "0x608060405234801561001057600080fd5b5061228c806100206000396000f3fe608060405234801561001057600080fd5b506004361061007d5760003560e01c80638b23d8751161005b5780638b23d875146100de5780638fb03a02146100fa578063c8b633be14610118578063ed0f2e75146101345761007d565b806313fcfe801461008257806380b54209146100a657806381f6bf7d146100c2575b600080fd5b61008a61016a565b60405161009d9796959493929190611d7c565b60405180910390f35b6100c060048036038101906100bb9190611a0e565b610c08565b005b6100dc60048036038101906100d791906119cd565b610d78565b005b6100f860048036038101906100f391906119cd565b6110ac565b005b61010261116e565b60405161010f9190611fbb565b60405180910390f35b610132600480360381019061012d9190611a0e565b61117b565b005b61014e600480360381019061014991906119cd565b61133b565b6040516101619796959493929190611e1c565b60405180910390f35b60608060608060608060606000600180549050905060008167ffffffffffffffff8111156101c1577f4e487b7100000000000000000000000000000000000000000000000000000000600052604160045260246000fd5b6040519080825280602002602001820160405280156101f457816020015b60608152602001906001900390816101df5790505b50905060008267ffffffffffffffff811115610239577f4e487b7100000000000000000000000000000000000000000000000000000000600052604160045260246000fd5b60405190808252806020026020018201604052801561026c57816020015b60608152602001906001900390816102575790505b50905060008367ffffffffffffffff8111156102b1577f4e487b7100000000000000000000000000000000000000000000000000000000600052604160045260246000fd5b6040519080825280602002602001820160405280156102e457816020015b60608152602001906001900390816102cf5790505b50905060008467ffffffffffffffff811115610329577f4e487b7100000000000000000000000000000000000000000000000000000000600052604160045260246000fd5b60405190808252806020026020018201604052801561035c57816020015b60608152602001906001900390816103475790505b50905060008567ffffffffffffffff8111156103a1577f4e487b7100000000000000000000000000000000000000000000000000000000600052604160045260246000fd5b6040519080825280602002602001820160405280156103d457816020015b60608152602001906001900390816103bf5790505b50905060008667ffffffffffffffff811115610419577f4e487b7100000000000000000000000000000000000000000000000000000000600052604160045260246000fd5b60405190808252806020026020018201604052801561044c57816020015b60608152602001906001900390816104375790505b50905060008767ffffffffffffffff811115610491577f4e487b7100000000000000000000000000000000000000000000000000000000600052604160045260246000fd5b6040519080825280602002602001820160405280156104c457816020015b60608152602001906001900390816104af5790505b50905060005b88811015610be15760006001828154811061050e577f4e487b7100000000000000000000000000000000000000000000000000000000600052603260045260246000fd5b9060005260206000200180546105239061213d565b80601f016020809104026020016040519081016040528092919081815260200182805461054f9061213d565b801561059c5780601f106105715761010080835404028352916020019161059c565b820191906000526020600020905b81548152906001019060200180831161057f57829003601f168201915b50505050509050600080826040516105b49190611d4e565b90815260200160405180910390206040518060e00160405290816000820180546105dd9061213d565b80601f01602080910402602001604051908101604052809291908181526020018280546106099061213d565b80156106565780601f1061062b57610100808354040283529160200191610656565b820191906000526020600020905b81548152906001019060200180831161063957829003601f168201915b5050505050815260200160018201805461066f9061213d565b80601f016020809104026020016040519081016040528092919081815260200182805461069b9061213d565b80156106e85780601f106106bd576101008083540402835291602001916106e8565b820191906000526020600020905b8154815290600101906020018083116106cb57829003601f168201915b505050505081526020016002820180546107019061213d565b80601f016020809104026020016040519081016040528092919081815260200182805461072d9061213d565b801561077a5780601f1061074f5761010080835404028352916020019161077a565b820191906000526020600020905b81548152906001019060200180831161075d57829003601f168201915b505050505081526020016003820180546107939061213d565b80601f01602080910402602001604051908101604052809291908181526020018280546107bf9061213d565b801561080c5780601f106107e15761010080835404028352916020019161080c565b820191906000526020600020905b8154815290600101906020018083116107ef57829003601f168201915b505050505081526020016004820180546108259061213d565b80601f01602080910402602001604051908101604052809291908181526020018280546108519061213d565b801561089e5780601f106108735761010080835404028352916020019161089e565b820191906000526020600020905b81548152906001019060200180831161088157829003601f168201915b505050505081526020016005820180546108b79061213d565b80601f01602080910402602001604051908101604052809291908181526020018280546108e39061213d565b80156109305780601f1061090557610100808354040283529160200191610930565b820191906000526020600020905b81548152906001019060200180831161091357829003601f168201915b505050505081526020016006820180546109499061213d565b80601f01602080910402602001604051908101604052809291908181526020018280546109759061213d565b80156109c25780601f10610997576101008083540402835291602001916109c2565b820191906000526020600020905b8154815290600101906020018083116109a557829003601f168201915b505050505081525050905080600001518a8481518110610a0b577f4e487b7100000000000000000000000000000000000000000000000000000000600052603260045260246000fd5b60200260200101819052508060200151898481518110610a54577f4e487b7100000000000000000000000000000000000000000000000000000000600052603260045260246000fd5b60200260200101819052508060400151888481518110610a9d577f4e487b7100000000000000000000000000000000000000000000000000000000600052603260045260246000fd5b60200260200101819052508060600151878481518110610ae6577f4e487b7100000000000000000000000000000000000000000000000000000000600052603260045260246000fd5b60200260200101819052508060800151868481518110610b2f577f4e487b7100000000000000000000000000000000000000000000000000000000600052603260045260246000fd5b60200260200101819052508060a00151858481518110610b78577f4e487b7100000000000000000000000000000000000000000000000000000000600052603260045260246000fd5b60200260200101819052508060c00151848481518110610bc1577f4e487b7100000000000000000000000000000000000000000000000000000000600052603260045260246000fd5b602002602001018190525050508080610bd99061216f565b9150506104ca565b50868686868686869e509e509e509e509e509e509e50505050505050505090919293949596565b60008088604051610c199190611d4e565b908152602001604051809103902090506000816000018054610c3a9061213d565b905011610c7c576040517f08c379a0000000000000000000000000000000000000000000000000000000008152600401610c7390611f9b565b60405180910390fd5b86816001019080519060200190610c949291906117f5565b5085816002019080519060200190610cad9291906117f5565b5084816003019080519060200190610cc69291906117f5565b5083816004019080519060200190610cdf9291906117f5565b5082816005019080519060200190610cf89291906117f5565b5081816006019080519060200190610d119291906117f5565b503373ffffffffffffffffffffffffffffffffffffffff167fbccac5b8461b11272532f07c9beed5318fc3b20f01404f33c2848ce9f2b88fe08989898989898942604051610d66989796959493929190611ebc565b60405180910390a25050505050505050565b60008082604051610d899190611d4e565b90815260200160405180910390206000018054610da59061213d565b905011610de7576040517f08c379a0000000000000000000000000000000000000000000000000000000008152600401610dde90611f9b565b60405180910390fd5b600081604051610df79190611d4e565b908152602001604051809103902060008082016000610e16919061187b565b600182016000610e26919061187b565b600282016000610e36919061187b565b600382016000610e46919061187b565b600482016000610e56919061187b565b600582016000610e66919061187b565b600682016000610e76919061187b565b50506000600180549050905060005b600180549050811015610f445782604051602001610ea39190611d4e565b6040516020818303038152906040528051906020012060018281548110610ef3577f4e487b7100000000000000000000000000000000000000000000000000000000600052603260045260246000fd5b90600052602060002001604051602001610f0d9190611d65565b604051602081830303815290604052805190602001201415610f3157809150610f44565b8080610f3c9061216f565b915050610e85565b50600180549050811015611058576001808080549050610f6491906120bd565b81548110610f9b577f4e487b7100000000000000000000000000000000000000000000000000000000600052603260045260246000fd5b9060005260206000200160018281548110610fdf577f4e487b7100000000000000000000000000000000000000000000000000000000600052603260045260246000fd5b90600052602060002001908054610ff59061213d565b6110009291906118bb565b506001805480611039577f4e487b7100000000000000000000000000000000000000000000000000000000600052603160045260246000fd5b600190038181906000526020600020016000611055919061187b565b90555b3373ffffffffffffffffffffffffffffffffffffffff167fee9332967e095be32bc4ca5b2d9a05d970d1a6bfdf212953acefe45c7eeaa48983426040516110a0929190611f6b565b60405180910390a25050565b600080826040516110bd9190611d4e565b908152602001604051809103902060000180546110d99061213d565b90501161111b576040517f08c379a000000000000000000000000000000000000000000000000000000000815260040161111290611f9b565b60405180910390fd5b3373ffffffffffffffffffffffffffffffffffffffff167f4113b24a839fba2595fe68667e4ba68a69c01f64bb51c034098ab9b2257bd77a8242604051611163929190611f6b565b60405180910390a250565b6000600180549050905090565b6040518060e00160405280888152602001878152602001868152602001858152602001848152602001838152602001828152506000886040516111be9190611d4e565b908152602001604051809103902060008201518160000190805190602001906111e89291906117f5565b5060208201518160010190805190602001906112059291906117f5565b5060408201518160020190805190602001906112229291906117f5565b50606082015181600301908051906020019061123f9291906117f5565b50608082015181600401908051906020019061125c9291906117f5565b5060a08201518160050190805190602001906112799291906117f5565b5060c08201518160060190805190602001906112969291906117f5565b509050506001879080600181540180825580915050600190039060005260206000200160009091909190915090805190602001906112d59291906117f5565b503373ffffffffffffffffffffffffffffffffffffffff167f27f51b679099fbeb5e09154ff10fdc77d22d39d76eff1364d566a4de0cdf6828888888888888884260405161132a989796959493929190611ebc565b60405180910390a250505050505050565b6060806060806060806060600080896040516113579190611d4e565b90815260200160405180910390206040518060e00160405290816000820180546113809061213d565b80601f01602080910402602001604051908101604052809291908181526020018280546113ac9061213d565b80156113f95780601f106113ce576101008083540402835291602001916113f9565b820191906000526020600020905b8154815290600101906020018083116113dc57829003601f168201915b505050505081526020016001820180546114129061213d565b80601f016020809104026020016040519081016040528092919081815260200182805461143e9061213d565b801561148b5780601f106114605761010080835404028352916020019161148b565b820191906000526020600020905b81548152906001019060200180831161146e57829003601f168201915b505050505081526020016002820180546114a49061213d565b80601f01602080910402602001604051908101604052809291908181526020018280546114d09061213d565b801561151d5780601f106114f25761010080835404028352916020019161151d565b820191906000526020600020905b81548152906001019060200180831161150057829003601f168201915b505050505081526020016003820180546115369061213d565b80601f01602080910402602001604051908101604052809291908181526020018280546115629061213d565b80156115af5780601f10611584576101008083540402835291602001916115af565b820191906000526020600020905b81548152906001019060200180831161159257829003601f168201915b505050505081526020016004820180546115c89061213d565b80601f01602080910402602001604051908101604052809291908181526020018280546115f49061213d565b80156116415780601f1061161657610100808354040283529160200191611641565b820191906000526020600020905b81548152906001019060200180831161162457829003601f168201915b5050505050815260200160058201805461165a9061213d565b80601f01602080910402602001604051908101604052809291908181526020018280546116869061213d565b80156116d35780601f106116a8576101008083540402835291602001916116d3565b820191906000526020600020905b8154815290600101906020018083116116b657829003601f168201915b505050505081526020016006820180546116ec9061213d565b80601f01602080910402602001604051908101604052809291908181526020018280546117189061213d565b80156117655780601f1061173a57610100808354040283529160200191611765565b820191906000526020600020905b81548152906001019060200180831161174857829003601f168201915b50505050508152505090506000816000015151116117b8576040517f08c379a00000000000000000000000000000000000000000000000000000000081526004016117af90611f9b565b60405180910390fd5b806000015181602001518260400151836060015184608001518560a001518660c00151975097509750975097509750975050919395979092949650565b8280546118019061213d565b90600052602060002090601f016020900481019282611823576000855561186a565b82601f1061183c57805160ff191683800117855561186a565b8280016001018555821561186a579182015b8281111561186957825182559160200191906001019061184e565b5b5090506118779190611948565b5090565b5080546118879061213d565b6000825580601f1061189957506118b8565b601f0160209004906000526020600020908101906118b79190611948565b5b50565b8280546118c79061213d565b90600052602060002090601f0160209004810192826118e95760008555611937565b82601f106118fa5780548555611937565b8280016001018555821561193757600052602060002091601f016020900482015b8281111561193657825482559160010191906001019061191b565b5b5090506119449190611948565b5090565b5b80821115611961576000816000905550600101611949565b5090565b600061197861197384612007565b611fd6565b90508281526020810184848401111561199057600080fd5b61199b8482856120fb565b509392505050565b600082601f8301126119b457600080fd5b81356119c4848260208601611965565b91505092915050565b6000602082840312156119df57600080fd5b600082013567ffffffffffffffff8111156119f957600080fd5b611a05848285016119a3565b91505092915050565b600080600080600080600060e0888a031215611a2957600080fd5b600088013567ffffffffffffffff811115611a4357600080fd5b611a4f8a828b016119a3565b975050602088013567ffffffffffffffff811115611a6c57600080fd5b611a788a828b016119a3565b965050604088013567ffffffffffffffff811115611a9557600080fd5b611aa18a828b016119a3565b955050606088013567ffffffffffffffff811115611abe57600080fd5b611aca8a828b016119a3565b945050608088013567ffffffffffffffff811115611ae757600080fd5b611af38a828b016119a3565b93505060a088013567ffffffffffffffff811115611b1057600080fd5b611b1c8a828b016119a3565b92505060c088013567ffffffffffffffff811115611b3957600080fd5b611b458a828b016119a3565b91505092959891949750929550565b6000611b608383611bdd565b905092915050565b6000611b738261205c565b611b7d818561207f565b935083602082028501611b8f85612037565b8060005b85811015611bcb5784840389528151611bac8582611b54565b9450611bb783612072565b925060208a01995050600181019050611b93565b50829750879550505050505092915050565b6000611be882612067565b611bf28185612090565b9350611c0281856020860161210a565b611c0b81612245565b840191505092915050565b6000611c2182612067565b611c2b81856120a1565b9350611c3b81856020860161210a565b611c4481612245565b840191505092915050565b6000611c5a82612067565b611c6481856120b2565b9350611c7481856020860161210a565b80840191505092915050565b60008154611c8d8161213d565b611c9781866120b2565b94506001821660008114611cb25760018114611cc357611cf6565b60ff19831686528186019350611cf6565b611ccc85612047565b60005b83811015611cee57815481890152600182019150602081019050611ccf565b838801955050505b50505092915050565b6000611d0c6015836120a1565b91507f4365727469666963617465206e6f7420666f756e6400000000000000000000006000830152602082019050919050565b611d48816120f1565b82525050565b6000611d5a8284611c4f565b915081905092915050565b6000611d718284611c80565b915081905092915050565b600060e0820190508181036000830152611d96818a611b68565b90508181036020830152611daa8189611b68565b90508181036040830152611dbe8188611b68565b90508181036060830152611dd28187611b68565b90508181036080830152611de68186611b68565b905081810360a0830152611dfa8185611b68565b905081810360c0830152611e0e8184611b68565b905098975050505050505050565b600060e0820190508181036000830152611e36818a611c16565b90508181036020830152611e4a8189611c16565b90508181036040830152611e5e8188611c16565b90508181036060830152611e728187611c16565b90508181036080830152611e868186611c16565b905081810360a0830152611e9a8185611c16565b905081810360c0830152611eae8184611c16565b905098975050505050505050565b6000610100820190508181036000830152611ed7818b611c16565b90508181036020830152611eeb818a611c16565b90508181036040830152611eff8189611c16565b90508181036060830152611f138188611c16565b90508181036080830152611f278187611c16565b905081810360a0830152611f3b8186611c16565b905081810360c0830152611f4f8185611c16565b9050611f5e60e0830184611d3f565b9998505050505050505050565b60006040820190508181036000830152611f858185611c16565b9050611f946020830184611d3f565b9392505050565b60006020820190508181036000830152611fb481611cff565b9050919050565b6000602082019050611fd06000830184611d3f565b92915050565b6000604051905081810181811067ffffffffffffffff82111715611ffd57611ffc612216565b5b8060405250919050565b600067ffffffffffffffff82111561202257612021612216565b5b601f19601f8301169050602081019050919050565b6000819050602082019050919050565b60008190508160005260206000209050919050565b600081519050919050565b600081519050919050565b6000602082019050919050565b600082825260208201905092915050565b600082825260208201905092915050565b600082825260208201905092915050565b600081905092915050565b60006120c8826120f1565b91506120d3836120f1565b9250828210156120e6576120e56121b8565b5b828203905092915050565b6000819050919050565b82818337600083830152505050565b60005b8381101561212857808201518184015260208101905061210d565b83811115612137576000848401525b50505050565b6000600282049050600182168061215557607f821691505b60208210811415612169576121686121e7565b5b50919050565b600061217a826120f1565b91507fffffffffffffffffffffffffffffffffffffffffffffffffffffffffffffffff8214156121ad576121ac6121b8565b5b600182019050919050565b7f4e487b7100000000000000000000000000000000000000000000000000000000600052601160045260246000fd5b7f4e487b7100000000000000000000000000000000000000000000000000000000600052602260045260246000fd5b7f4e487b7100000000000000000000000000000000000000000000000000000000600052604160045260246000fd5b6000601f19601f830116905091905056fea2646970667358221220ea71b9c5234b193a9484e3cbab20a235c997273bb20ec634eb9e31d30c46da4864736f6c63430008000033",
  "immutableReferences": {},
  "source": "// SPDX-License-Identifier: MIT\npragma solidity ^0.8.0;\n\ncontract CertificateRegistry {\n    struct Certificate {\n        string serialNumber;\n        string name;\n        string cid; // IPFS CID for the PDF\n        string icNumber;\n        string studentId;\n        string courseName;\n        string issuedDate;\n    }\n\n    mapping(string => Certificate) private certificates;\n    string[] private certificateSerialNumbers; // To store all serial numbers\n\n    // Events for tracking transactions\n    event CertificateRegistered(\n        string serialNumber,\n        string name,\n        string cid,\n        string icNumber,\n        string studentId,\n        string courseName,\n        string issuedDate,\n        address indexed sender,\n        uint256 timestamp\n    );\n    \n    event CertificateUpdated(\n        string serialNumber,\n        string newName,\n        string newCid,\n        string newIcNumber,\n        string newStudentId,\n        string newCourseName,\n        string newIssuedDate,\n        address indexed sender,\n        uint256 timestamp\n    );\n    \n    event CertificateDeleted(\n        string serialNumber,\n        address indexed sender,\n        uint256 timestamp\n    );\n\n    event CertificateVerified(\n        string serialNumber,\n        address indexed verifier,\n        uint256 timestamp\n    );\n\n    // Register a certificate\n    function registerCertificate(\n        string memory serialNumber,\n        string memory name,\n        string memory cid,\n        string memory icNumber,\n        string memory studentId,\n        string memory courseName,\n        string memory issuedDate\n    ) public {\n        certificates[serialNumber] = Certificate(\n            serialNumber, \n            name, \n            cid, \n            icNumber, \n            studentId, \n            courseName, \n            issuedDate\n        );\n        certificateSerialNumbers.push(serialNumber);\n        \n        emit CertificateRegistered(\n            serialNumber, \n            name, \n            cid, \n            icNumber, \n            studentId, \n            courseName, \n            issuedDate, \n            msg.sender, \n            block.timestamp\n        );\n    }\n\n    // Get a specific certificate\n    function getCertificate(\n        string memory serialNumber\n    )\n        public\n        view\n        returns (\n            string memory,\n            string memory,\n            string memory,\n            string memory,\n            string memory,\n            string memory,\n            string memory\n        )\n    {\n        Certificate memory cert = certificates[serialNumber];\n        require(bytes(cert.serialNumber).length > 0, \"Certificate not found\");\n        return (\n            cert.serialNumber,\n            cert.name,\n            cert.cid,\n            cert.icNumber,\n            cert.studentId,\n            cert.courseName,\n            cert.issuedDate\n        );\n    }\n\n    // Get all certificates' details\n    function getAllCertificates()\n        public\n        view\n        returns (\n            string[] memory,\n            string[] memory,\n            string[] memory,\n            string[] memory,\n            string[] memory,\n            string[] memory,\n            string[] memory\n        )\n    {\n        uint256 length = certificateSerialNumbers.length;\n        string[] memory serialNumbers = new string[](length);\n        string[] memory names = new string[](length);\n        string[] memory cids = new string[](length);\n        string[] memory icNumbers = new string[](length);\n        string[] memory studentIds = new string[](length);\n        string[] memory courseNames = new string[](length);\n        string[] memory issuedDates = new string[](length);\n\n        for (uint256 i = 0; i < length; i++) {\n            string memory serialNumber = certificateSerialNumbers[i];\n            Certificate memory cert = certificates[serialNumber];\n            serialNumbers[i] = cert.serialNumber;\n            names[i] = cert.name;\n            cids[i] = cert.cid;\n            icNumbers[i] = cert.icNumber;\n            studentIds[i] = cert.studentId;\n            courseNames[i] = cert.courseName;\n            issuedDates[i] = cert.issuedDate;\n        }\n\n        return (\n            serialNumbers,\n            names,\n            cids,\n            icNumbers,\n            studentIds,\n            courseNames,\n            issuedDates\n        );\n    }\n\n    // Verify a certificate\n    function verifyCertificate(string memory serialNumber) public {\n        // Check if the certificate exists\n        require(bytes(certificates[serialNumber].serialNumber).length > 0, \"Certificate not found\");\n\n        // Emit an event to record the verification\n        emit CertificateVerified(serialNumber, msg.sender, block.timestamp);\n    }\n\n    // Update an existing certificate's details\n    function updateCertificate(\n        string memory serialNumber,\n        string memory newName,\n        string memory newCid,\n        string memory newIcNumber,\n        string memory newStudentId,\n        string memory newCourseName,\n        string memory newIssuedDate\n    ) public {\n        Certificate storage cert = certificates[serialNumber];\n        require(bytes(cert.serialNumber).length > 0, \"Certificate not found\");\n        cert.name = newName;\n        cert.cid = newCid;\n        cert.icNumber = newIcNumber;\n        cert.studentId = newStudentId;\n        cert.courseName = newCourseName;\n        cert.issuedDate = newIssuedDate;\n\n        emit CertificateUpdated(\n            serialNumber,\n            newName,\n            newCid,\n            newIcNumber,\n            newStudentId,\n            newCourseName,\n            newIssuedDate,\n            msg.sender,\n            block.timestamp\n        );\n    }\n\n    // Delete a certificate by serial number\n    function deleteCertificate(string memory serialNumber) public {\n        require(bytes(certificates[serialNumber].serialNumber).length > 0, \"Certificate not found\");\n        delete certificates[serialNumber];\n\n        uint256 indexToDelete = certificateSerialNumbers.length;\n        for (uint256 i = 0; i < certificateSerialNumbers.length; i++) {\n            if (keccak256(abi.encodePacked(certificateSerialNumbers[i])) == keccak256(abi.encodePacked(serialNumber))) {\n                indexToDelete = i;\n                break;\n            }\n        }\n\n        if (indexToDelete < certificateSerialNumbers.length) {\n            certificateSerialNumbers[indexToDelete] = certificateSerialNumbers[certificateSerialNumbers.length - 1];\n            certificateSerialNumbers.pop();\n        }\n\n        emit CertificateDeleted(serialNumber, msg.sender, block.timestamp);\n    }\n\n    // Get the count of all registered certificates\n    function getCertificatesCount() public view returns (uint256) {\n        return certificateSerialNumbers.length;\n    }\n}\n",
  "sourcePath": "C:\\xampp\\htdocs\\laravel-react-blockchain\\react-frontend\\blockchain\\contracts\\CertificateRegistry.sol",
  "compiler": {
    "name": "solc",
    "version": "0.8.0+commit.c7dfd78e.Emscripten.clang"
  },
  "schemaVersion": "3.4.16",
  "updatedAt": "2024-12-15T14:41:39.544Z",
  "networkType": "ethereum",
  "devdoc": {
    "kind": "dev",
    "methods": {},
    "version": 1
  },
  "userdoc": {
    "kind": "user",
    "methods": {},
    "version": 1
  }
}