{
  "contractName": "CertificateRegistry",
  "abi": [
    {
      "inputs": [],
      "stateMutability": "nonpayable",
      "type": "constructor"
    },
    {
      "anonymous": false,
      "inputs": [
        {
          "indexed": false,
          "internalType": "string",
          "name": "serialNumber",
          "type": "string"
        },
        {
          "indexed": true,
          "internalType": "address",
          "name": "sender",
          "type": "address"
        },
        {
          "indexed": false,
          "internalType": "uint256",
          "name": "timestamp",
          "type": "uint256"
        }
      ],
      "name": "CertificateDeleted",
      "type": "event"
    },
    {
      "anonymous": false,
      "inputs": [
        {
          "indexed": false,
          "internalType": "string",
          "name": "serialNumber",
          "type": "string"
        },
        {
          "indexed": true,
          "internalType": "address",
          "name": "sender",
          "type": "address"
        },
        {
          "indexed": false,
          "internalType": "uint256",
          "name": "timestamp",
          "type": "uint256"
        }
      ],
      "name": "CertificateRegistered",
      "type": "event"
    },
    {
      "anonymous": false,
      "inputs": [
        {
          "indexed": false,
          "internalType": "string",
          "name": "serialNumber",
          "type": "string"
        },
        {
          "indexed": true,
          "internalType": "address",
          "name": "sender",
          "type": "address"
        },
        {
          "indexed": false,
          "internalType": "uint256",
          "name": "timestamp",
          "type": "uint256"
        }
      ],
      "name": "CertificateUpdated",
      "type": "event"
    },
    {
      "anonymous": false,
      "inputs": [
        {
          "indexed": false,
          "internalType": "string",
          "name": "serialNumber",
          "type": "string"
        },
        {
          "indexed": true,
          "internalType": "address",
          "name": "verifier",
          "type": "address"
        },
        {
          "indexed": false,
          "internalType": "uint256",
          "name": "timestamp",
          "type": "uint256"
        },
        {
          "indexed": false,
          "internalType": "bool",
          "name": "verified",
          "type": "bool"
        }
      ],
      "name": "CertificateVerified",
      "type": "event"
    },
    {
      "inputs": [
        {
          "internalType": "string",
          "name": "serialNumber",
          "type": "string"
        },
        {
          "internalType": "string",
          "name": "name",
          "type": "string"
        },
        {
          "internalType": "string",
          "name": "certCID",
          "type": "string"
        },
        {
          "internalType": "string",
          "name": "icNumber",
          "type": "string"
        },
        {
          "internalType": "string",
          "name": "studentId",
          "type": "string"
        },
        {
          "internalType": "string",
          "name": "courseName",
          "type": "string"
        },
        {
          "internalType": "string",
          "name": "issuedDate",
          "type": "string"
        },
        {
          "internalType": "string",
          "name": "certHash",
          "type": "string"
        },
        {
          "internalType": "string",
          "name": "transCID",
          "type": "string"
        }
      ],
      "name": "registerCertificate",
      "outputs": [],
      "stateMutability": "nonpayable",
      "type": "function"
    },
    {
      "inputs": [
        {
          "internalType": "string",
          "name": "serialNumber",
          "type": "string"
        }
      ],
      "name": "getCertificate",
      "outputs": [
        {
          "components": [
            {
              "internalType": "string",
              "name": "serialNumber",
              "type": "string"
            },
            {
              "internalType": "string",
              "name": "name",
              "type": "string"
            },
            {
              "internalType": "string",
              "name": "certCID",
              "type": "string"
            },
            {
              "internalType": "string",
              "name": "icNumber",
              "type": "string"
            },
            {
              "internalType": "string",
              "name": "studentId",
              "type": "string"
            },
            {
              "internalType": "string",
              "name": "courseName",
              "type": "string"
            },
            {
              "internalType": "string",
              "name": "issuedDate",
              "type": "string"
            },
            {
              "internalType": "string",
              "name": "certHash",
              "type": "string"
            },
            {
              "internalType": "string",
              "name": "transCID",
              "type": "string"
            }
          ],
          "internalType": "struct CertificateRegistry.Certificate",
          "name": "",
          "type": "tuple"
        }
      ],
      "stateMutability": "view",
      "type": "function",
      "constant": true
    },
    {
      "inputs": [
        {
          "internalType": "string",
          "name": "certHash",
          "type": "string"
        }
      ],
      "name": "getCertificateByHash",
      "outputs": [
        {
          "components": [
            {
              "internalType": "string",
              "name": "serialNumber",
              "type": "string"
            },
            {
              "internalType": "string",
              "name": "name",
              "type": "string"
            },
            {
              "internalType": "string",
              "name": "certCID",
              "type": "string"
            },
            {
              "internalType": "string",
              "name": "icNumber",
              "type": "string"
            },
            {
              "internalType": "string",
              "name": "studentId",
              "type": "string"
            },
            {
              "internalType": "string",
              "name": "courseName",
              "type": "string"
            },
            {
              "internalType": "string",
              "name": "issuedDate",
              "type": "string"
            },
            {
              "internalType": "string",
              "name": "certHash",
              "type": "string"
            },
            {
              "internalType": "string",
              "name": "transCID",
              "type": "string"
            }
          ],
          "internalType": "struct CertificateRegistry.Certificate",
          "name": "",
          "type": "tuple"
        }
      ],
      "stateMutability": "view",
      "type": "function",
      "constant": true
    },
    {
      "inputs": [],
      "name": "getAllCertificates",
      "outputs": [
        {
          "components": [
            {
              "internalType": "string",
              "name": "serialNumber",
              "type": "string"
            },
            {
              "internalType": "string",
              "name": "name",
              "type": "string"
            },
            {
              "internalType": "string",
              "name": "certCID",
              "type": "string"
            },
            {
              "internalType": "string",
              "name": "icNumber",
              "type": "string"
            },
            {
              "internalType": "string",
              "name": "studentId",
              "type": "string"
            },
            {
              "internalType": "string",
              "name": "courseName",
              "type": "string"
            },
            {
              "internalType": "string",
              "name": "issuedDate",
              "type": "string"
            },
            {
              "internalType": "string",
              "name": "certHash",
              "type": "string"
            },
            {
              "internalType": "string",
              "name": "transCID",
              "type": "string"
            }
          ],
          "internalType": "struct CertificateRegistry.Certificate[]",
          "name": "",
          "type": "tuple[]"
        }
      ],
      "stateMutability": "view",
      "type": "function",
      "constant": true
    },
    {
      "inputs": [
        {
          "internalType": "string",
          "name": "serialNumber",
          "type": "string"
        }
      ],
      "name": "verifyCertificate",
      "outputs": [],
      "stateMutability": "nonpayable",
      "type": "function"
    },
    {
      "inputs": [
        {
          "internalType": "string",
          "name": "certHash",
          "type": "string"
        }
      ],
      "name": "verifyCertificateByHash",
      "outputs": [
        {
          "internalType": "string",
          "name": "",
          "type": "string"
        }
      ],
      "stateMutability": "nonpayable",
      "type": "function"
    },
    {
      "inputs": [
        {
          "internalType": "string",
          "name": "serialNumber",
          "type": "string"
        },
        {
          "internalType": "string",
          "name": "newName",
          "type": "string"
        },
        {
          "internalType": "string",
          "name": "newCertCID",
          "type": "string"
        },
        {
          "internalType": "string",
          "name": "newIcNumber",
          "type": "string"
        },
        {
          "internalType": "string",
          "name": "newStudentId",
          "type": "string"
        },
        {
          "internalType": "string",
          "name": "newCourseName",
          "type": "string"
        },
        {
          "internalType": "string",
          "name": "newIssuedDate",
          "type": "string"
        },
        {
          "internalType": "string",
          "name": "newCertHash",
          "type": "string"
        },
        {
          "internalType": "string",
          "name": "newTransCID",
          "type": "string"
        }
      ],
      "name": "updateCertificate",
      "outputs": [],
      "stateMutability": "nonpayable",
      "type": "function"
    },
    {
      "inputs": [
        {
          "internalType": "string",
          "name": "serialNumber",
          "type": "string"
        }
      ],
      "name": "deleteCertificate",
      "outputs": [],
      "stateMutability": "nonpayable",
      "type": "function"
    },
    {
      "inputs": [],
      "name": "getCertificatesCount",
      "outputs": [
        {
          "internalType": "uint256",
          "name": "",
          "type": "uint256"
        }
      ],
      "stateMutability": "view",
      "type": "function",
      "constant": true
    }
  ],
  "bytecode": "0x608060405234801561001057600080fd5b50336000806101000a81548173ffffffffffffffffffffffffffffffffffffffff021916908373ffffffffffffffffffffffffffffffffffffffff160217905550612ea7806100606000396000f3fe608060405234801561001057600080fd5b50600436106100935760003560e01c8063714d8a0511610066578063714d8a051461013257806381f6bf7d1461014e5780638b23d8751461016a5780638fb03a0214610186578063ed0f2e75146101a457610093565b8063129745a61461009857806313fcfe80146100b457806351ab415f146100d257806366242c5e14610102575b600080fd5b6100b260048036038101906100ad91906123c1565b6101d4565b005b6100bc610570565b6040516100c99190612a76565b60405180910390f35b6100ec60048036038101906100e79190612380565b610c82565b6040516100f99190612a98565b60405180910390f35b61011c60048036038101906101179190612380565b610dcf565b6040516101299190612ba8565b60405180910390f35b61014c600480360381019061014791906123c1565b61141a565b005b61016860048036038101906101639190612380565b611641565b005b610184600480360381019061017f9190612380565b611ae0565b005b61018e611ba6565b60405161019b9190612bca565b60405180910390f35b6101be60048036038101906101b99190612380565b611bb3565b6040516101cb9190612ba8565b60405180910390f35b60008054906101000a900473ffffffffffffffffffffffffffffffffffffffff1673ffffffffffffffffffffffffffffffffffffffff163373ffffffffffffffffffffffffffffffffffffffff1614610262576040517f08c379a000000000000000000000000000000000000000000000000000000000815260040161025990612b68565b60405180910390fd5b600060018a6040516102749190612a48565b9081526020016040518091039020600001805461029090612d58565b9050146102d2576040517f08c379a00000000000000000000000000000000000000000000000000000000081526004016102c990612b28565b60405180910390fd5b60006002836040516102e49190612a48565b908152602001604051809103902080546102fd90612d58565b90501461033f576040517f08c379a000000000000000000000000000000000000000000000000000000000815260040161033690612b48565b60405180910390fd5b6040518061012001604052808a81526020018981526020018881526020018781526020018681526020018581526020018481526020018381526020018281525060018a60405161038f9190612a48565b908152602001604051809103902060008201518160000190805190602001906103b992919061215c565b5060208201518160010190805190602001906103d692919061215c565b5060408201518160020190805190602001906103f392919061215c565b50606082015181600301908051906020019061041092919061215c565b50608082015181600401908051906020019061042d92919061215c565b5060a082015181600501908051906020019061044a92919061215c565b5060c082015181600601908051906020019061046792919061215c565b5060e082015181600701908051906020019061048492919061215c565b506101008201518160080190805190602001906104a292919061215c565b509050506003899080600181540180825580915050600190039060005260206000200160009091909190915090805190602001906104e192919061215c565b50886002836040516104f39190612a48565b9081526020016040518091039020908051906020019061051492919061215c565b503373ffffffffffffffffffffffffffffffffffffffff167f2c3b79c6c7dd5508d583421a96c667d9c5c4b945572159f1f745aa99854863848a4260405161055d929190612aba565b60405180910390a2505050505050505050565b606060008054906101000a900473ffffffffffffffffffffffffffffffffffffffff1673ffffffffffffffffffffffffffffffffffffffff163373ffffffffffffffffffffffffffffffffffffffff1614610600576040517f08c379a00000000000000000000000000000000000000000000000000000000081526004016105f790612b68565b60405180910390fd5b6000600380549050905060008167ffffffffffffffff81111561064c577f4e487b7100000000000000000000000000000000000000000000000000000000600052604160045260246000fd5b60405190808252806020026020018201604052801561068557816020015b6106726121e2565b81526020019060019003908161066a5790505b50905060005b82811015610c79576001600382815481106106cf577f4e487b7100000000000000000000000000000000000000000000000000000000600052603260045260246000fd5b906000526020600020016040516106e69190612a5f565b90815260200160405180910390206040518061012001604052908160008201805461071090612d58565b80601f016020809104026020016040519081016040528092919081815260200182805461073c90612d58565b80156107895780601f1061075e57610100808354040283529160200191610789565b820191906000526020600020905b81548152906001019060200180831161076c57829003601f168201915b505050505081526020016001820180546107a290612d58565b80601f01602080910402602001604051908101604052809291908181526020018280546107ce90612d58565b801561081b5780601f106107f05761010080835404028352916020019161081b565b820191906000526020600020905b8154815290600101906020018083116107fe57829003601f168201915b5050505050815260200160028201805461083490612d58565b80601f016020809104026020016040519081016040528092919081815260200182805461086090612d58565b80156108ad5780601f10610882576101008083540402835291602001916108ad565b820191906000526020600020905b81548152906001019060200180831161089057829003601f168201915b505050505081526020016003820180546108c690612d58565b80601f01602080910402602001604051908101604052809291908181526020018280546108f290612d58565b801561093f5780601f106109145761010080835404028352916020019161093f565b820191906000526020600020905b81548152906001019060200180831161092257829003601f168201915b5050505050815260200160048201805461095890612d58565b80601f016020809104026020016040519081016040528092919081815260200182805461098490612d58565b80156109d15780601f106109a6576101008083540402835291602001916109d1565b820191906000526020600020905b8154815290600101906020018083116109b457829003601f168201915b505050505081526020016005820180546109ea90612d58565b80601f0160208091040260200160405190810160405280929190818152602001828054610a1690612d58565b8015610a635780601f10610a3857610100808354040283529160200191610a63565b820191906000526020600020905b815481529060010190602001808311610a4657829003601f168201915b50505050508152602001600682018054610a7c90612d58565b80601f0160208091040260200160405190810160405280929190818152602001828054610aa890612d58565b8015610af55780601f10610aca57610100808354040283529160200191610af5565b820191906000526020600020905b815481529060010190602001808311610ad857829003601f168201915b50505050508152602001600782018054610b0e90612d58565b80601f0160208091040260200160405190810160405280929190818152602001828054610b3a90612d58565b8015610b875780601f10610b5c57610100808354040283529160200191610b87565b820191906000526020600020905b815481529060010190602001808311610b6a57829003601f168201915b50505050508152602001600882018054610ba090612d58565b80601f0160208091040260200160405190810160405280929190818152602001828054610bcc90612d58565b8015610c195780601f10610bee57610100808354040283529160200191610c19565b820191906000526020600020905b815481529060010190602001808311610bfc57829003601f168201915b505050505081525050828281518110610c5b577f4e487b7100000000000000000000000000000000000000000000000000000000600052603260045260246000fd5b60200260200101819052508080610c7190612d8a565b91505061068b565b50809250505090565b60606000600283604051610c969190612a48565b90815260200160405180910390208054610caf90612d58565b80601f0160208091040260200160405190810160405280929190818152602001828054610cdb90612d58565b8015610d285780601f10610cfd57610100808354040283529160200191610d28565b820191906000526020600020905b815481529060010190602001808311610d0b57829003601f168201915b505050505090506000815111610d73576040517f08c379a0000000000000000000000000000000000000000000000000000000008152600401610d6a90612b88565b60405180910390fd5b3373ffffffffffffffffffffffffffffffffffffffff167ff26b0adae3323e420dfac3e283392a8eb06e93d0a70990f71859de28be1f908882426001604051610dbe93929190612aea565b60405180910390a280915050919050565b610dd76121e2565b6000600283604051610de99190612a48565b90815260200160405180910390208054610e0290612d58565b80601f0160208091040260200160405190810160405280929190818152602001828054610e2e90612d58565b8015610e7b5780601f10610e5057610100808354040283529160200191610e7b565b820191906000526020600020905b815481529060010190602001808311610e5e57829003601f168201915b505050505090506000815111610ec6576040517f08c379a0000000000000000000000000000000000000000000000000000000008152600401610ebd90612b88565b60405180910390fd5b600181604051610ed69190612a48565b908152602001604051809103902060405180610120016040529081600082018054610f0090612d58565b80601f0160208091040260200160405190810160405280929190818152602001828054610f2c90612d58565b8015610f795780601f10610f4e57610100808354040283529160200191610f79565b820191906000526020600020905b815481529060010190602001808311610f5c57829003601f168201915b50505050508152602001600182018054610f9290612d58565b80601f0160208091040260200160405190810160405280929190818152602001828054610fbe90612d58565b801561100b5780601f10610fe05761010080835404028352916020019161100b565b820191906000526020600020905b815481529060010190602001808311610fee57829003601f168201915b5050505050815260200160028201805461102490612d58565b80601f016020809104026020016040519081016040528092919081815260200182805461105090612d58565b801561109d5780601f106110725761010080835404028352916020019161109d565b820191906000526020600020905b81548152906001019060200180831161108057829003601f168201915b505050505081526020016003820180546110b690612d58565b80601f01602080910402602001604051908101604052809291908181526020018280546110e290612d58565b801561112f5780601f106111045761010080835404028352916020019161112f565b820191906000526020600020905b81548152906001019060200180831161111257829003601f168201915b5050505050815260200160048201805461114890612d58565b80601f016020809104026020016040519081016040528092919081815260200182805461117490612d58565b80156111c15780601f10611196576101008083540402835291602001916111c1565b820191906000526020600020905b8154815290600101906020018083116111a457829003601f168201915b505050505081526020016005820180546111da90612d58565b80601f016020809104026020016040519081016040528092919081815260200182805461120690612d58565b80156112535780601f1061122857610100808354040283529160200191611253565b820191906000526020600020905b81548152906001019060200180831161123657829003601f168201915b5050505050815260200160068201805461126c90612d58565b80601f016020809104026020016040519081016040528092919081815260200182805461129890612d58565b80156112e55780601f106112ba576101008083540402835291602001916112e5565b820191906000526020600020905b8154815290600101906020018083116112c857829003601f168201915b505050505081526020016007820180546112fe90612d58565b80601f016020809104026020016040519081016040528092919081815260200182805461132a90612d58565b80156113775780601f1061134c57610100808354040283529160200191611377565b820191906000526020600020905b81548152906001019060200180831161135a57829003601f168201915b5050505050815260200160088201805461139090612d58565b80601f01602080910402602001604051908101604052809291908181526020018280546113bc90612d58565b80156114095780601f106113de57610100808354040283529160200191611409565b820191906000526020600020905b8154815290600101906020018083116113ec57829003601f168201915b505050505081525050915050919050565b60008054906101000a900473ffffffffffffffffffffffffffffffffffffffff1673ffffffffffffffffffffffffffffffffffffffff163373ffffffffffffffffffffffffffffffffffffffff16146114a8576040517f08c379a000000000000000000000000000000000000000000000000000000000815260040161149f90612b68565b60405180910390fd5b600060018a6040516114ba9190612a48565b9081526020016040518091039020905060008160000180546114db90612d58565b90501161151d576040517f08c379a000000000000000000000000000000000000000000000000000000000815260040161151490612b88565b60405180910390fd5b8881600101908051906020019061153592919061215c565b508781600201908051906020019061154e92919061215c565b508681600301908051906020019061156792919061215c565b508581600401908051906020019061158092919061215c565b508481600501908051906020019061159992919061215c565b50838160060190805190602001906115b292919061215c565b50828160070190805190602001906115cb92919061215c565b50818160080190805190602001906115e492919061215c565b503373ffffffffffffffffffffffffffffffffffffffff167f8295d7c4a6a6f12825552de2e03e841dfeb954780281d5e7c1b817812e0945d18b4260405161162d929190612aba565b60405180910390a250505050505050505050565b60008054906101000a900473ffffffffffffffffffffffffffffffffffffffff1673ffffffffffffffffffffffffffffffffffffffff163373ffffffffffffffffffffffffffffffffffffffff16146116cf576040517f08c379a00000000000000000000000000000000000000000000000000000000081526004016116c690612b68565b60405180910390fd5b60006001826040516116e19190612a48565b908152602001604051809103902060000180546116fd90612d58565b90501161173f576040517f08c379a000000000000000000000000000000000000000000000000000000000815260040161173690612b88565b60405180910390fd5b60006002826040516117519190612a48565b9081526020016040518091039020805461176a90612d58565b80601f016020809104026020016040519081016040528092919081815260200182805461179690612d58565b80156117e35780601f106117b8576101008083540402835291602001916117e3565b820191906000526020600020905b8154815290600101906020018083116117c657829003601f168201915b505050505090506002816040516117fa9190612a48565b90815260200160405180910390206000611814919061222e565b6001826040516118249190612a48565b908152602001604051809103902060008082016000611843919061222e565b600182016000611853919061222e565b600282016000611863919061222e565b600382016000611873919061222e565b600482016000611883919061222e565b600582016000611893919061222e565b6006820160006118a3919061222e565b6007820160006118b3919061222e565b6008820160006118c3919061222e565b505060005b600380549050811015611a8b57826040516020016118e69190612a48565b6040516020818303038152906040528051906020012060038281548110611936577f4e487b7100000000000000000000000000000000000000000000000000000000600052603260045260246000fd5b906000526020600020016040516020016119509190612a5f565b604051602081830303815290604052805190602001201415611a7857600360016003805490506119809190612ccc565b815481106119b7577f4e487b7100000000000000000000000000000000000000000000000000000000600052603260045260246000fd5b90600052602060002001600382815481106119fb577f4e487b7100000000000000000000000000000000000000000000000000000000600052603260045260246000fd5b90600052602060002001908054611a1190612d58565b611a1c92919061226e565b506003805480611a55577f4e487b7100000000000000000000000000000000000000000000000000000000600052603160045260246000fd5b600190038181906000526020600020016000611a71919061222e565b9055611a8b565b8080611a8390612d8a565b9150506118c8565b503373ffffffffffffffffffffffffffffffffffffffff167fee9332967e095be32bc4ca5b2d9a05d970d1a6bfdf212953acefe45c7eeaa4898342604051611ad4929190612aba565b60405180910390a25050565b6000600182604051611af29190612a48565b90815260200160405180910390206000018054611b0e90612d58565b905011611b50576040517f08c379a0000000000000000000000000000000000000000000000000000000008152600401611b4790612b88565b60405180910390fd5b3373ffffffffffffffffffffffffffffffffffffffff167ff26b0adae3323e420dfac3e283392a8eb06e93d0a70990f71859de28be1f908882426001604051611b9b93929190612aea565b60405180910390a250565b6000600380549050905090565b611bbb6121e2565b6000600183604051611bcd9190612a48565b908152602001604051809103902060405180610120016040529081600082018054611bf790612d58565b80601f0160208091040260200160405190810160405280929190818152602001828054611c2390612d58565b8015611c705780601f10611c4557610100808354040283529160200191611c70565b820191906000526020600020905b815481529060010190602001808311611c5357829003601f168201915b50505050508152602001600182018054611c8990612d58565b80601f0160208091040260200160405190810160405280929190818152602001828054611cb590612d58565b8015611d025780601f10611cd757610100808354040283529160200191611d02565b820191906000526020600020905b815481529060010190602001808311611ce557829003601f168201915b50505050508152602001600282018054611d1b90612d58565b80601f0160208091040260200160405190810160405280929190818152602001828054611d4790612d58565b8015611d945780601f10611d6957610100808354040283529160200191611d94565b820191906000526020600020905b815481529060010190602001808311611d7757829003601f168201915b50505050508152602001600382018054611dad90612d58565b80601f0160208091040260200160405190810160405280929190818152602001828054611dd990612d58565b8015611e265780601f10611dfb57610100808354040283529160200191611e26565b820191906000526020600020905b815481529060010190602001808311611e0957829003601f168201915b50505050508152602001600482018054611e3f90612d58565b80601f0160208091040260200160405190810160405280929190818152602001828054611e6b90612d58565b8015611eb85780601f10611e8d57610100808354040283529160200191611eb8565b820191906000526020600020905b815481529060010190602001808311611e9b57829003601f168201915b50505050508152602001600582018054611ed190612d58565b80601f0160208091040260200160405190810160405280929190818152602001828054611efd90612d58565b8015611f4a5780601f10611f1f57610100808354040283529160200191611f4a565b820191906000526020600020905b815481529060010190602001808311611f2d57829003601f168201915b50505050508152602001600682018054611f6390612d58565b80601f0160208091040260200160405190810160405280929190818152602001828054611f8f90612d58565b8015611fdc5780601f10611fb157610100808354040283529160200191611fdc565b820191906000526020600020905b815481529060010190602001808311611fbf57829003601f168201915b50505050508152602001600782018054611ff590612d58565b80601f016020809104026020016040519081016040528092919081815260200182805461202190612d58565b801561206e5780601f106120435761010080835404028352916020019161206e565b820191906000526020600020905b81548152906001019060200180831161205157829003601f168201915b5050505050815260200160088201805461208790612d58565b80601f01602080910402602001604051908101604052809291908181526020018280546120b390612d58565b80156121005780601f106120d557610100808354040283529160200191612100565b820191906000526020600020905b8154815290600101906020018083116120e357829003601f168201915b5050505050815250509050600081600001515111612153576040517f08c379a000000000000000000000000000000000000000000000000000000000815260040161214a90612b88565b60405180910390fd5b80915050919050565b82805461216890612d58565b90600052602060002090601f01602090048101928261218a57600085556121d1565b82601f106121a357805160ff19168380011785556121d1565b828001600101855582156121d1579182015b828111156121d05782518255916020019190600101906121b5565b5b5090506121de91906122fb565b5090565b6040518061012001604052806060815260200160608152602001606081526020016060815260200160608152602001606081526020016060815260200160608152602001606081525090565b50805461223a90612d58565b6000825580601f1061224c575061226b565b601f01602090049060005260206000209081019061226a91906122fb565b5b50565b82805461227a90612d58565b90600052602060002090601f01602090048101928261229c57600085556122ea565b82601f106122ad57805485556122ea565b828001600101855582156122ea57600052602060002091601f016020900482015b828111156122e95782548255916001019190600101906122ce565b5b5090506122f791906122fb565b5090565b5b808211156123145760008160009055506001016122fc565b5090565b600061232b61232684612c16565b612be5565b90508281526020810184848401111561234357600080fd5b61234e848285612d16565b509392505050565b600082601f83011261236757600080fd5b8135612377848260208601612318565b91505092915050565b60006020828403121561239257600080fd5b600082013567ffffffffffffffff8111156123ac57600080fd5b6123b884828501612356565b91505092915050565b60008060008060008060008060006101208a8c0312156123e057600080fd5b60008a013567ffffffffffffffff8111156123fa57600080fd5b6124068c828d01612356565b99505060208a013567ffffffffffffffff81111561242357600080fd5b61242f8c828d01612356565b98505060408a013567ffffffffffffffff81111561244c57600080fd5b6124588c828d01612356565b97505060608a013567ffffffffffffffff81111561247557600080fd5b6124818c828d01612356565b96505060808a013567ffffffffffffffff81111561249e57600080fd5b6124aa8c828d01612356565b95505060a08a013567ffffffffffffffff8111156124c757600080fd5b6124d38c828d01612356565b94505060c08a013567ffffffffffffffff8111156124f057600080fd5b6124fc8c828d01612356565b93505060e08a013567ffffffffffffffff81111561251957600080fd5b6125258c828d01612356565b9250506101008a013567ffffffffffffffff81111561254357600080fd5b61254f8c828d01612356565b9150509295985092959850929598565b600061256b838361283f565b905092915050565b600061257e82612c6b565b6125888185612c8e565b93508360208202850161259a85612c46565b8060005b858110156125d657848403895281516125b7858261255f565b94506125c283612c81565b925060208a0199505060018101905061259e565b50829750879550505050505092915050565b6125f181612d00565b82525050565b600061260282612c76565b61260c8185612c9f565b935061261c818560208601612d25565b61262581612e60565b840191505092915050565b600061263b82612c76565b6126458185612cb0565b9350612655818560208601612d25565b61265e81612e60565b840191505092915050565b600061267482612c76565b61267e8185612cc1565b935061268e818560208601612d25565b80840191505092915050565b600081546126a781612d58565b6126b18186612cc1565b945060018216600081146126cc57600181146126dd57612710565b60ff19831686528186019350612710565b6126e685612c56565b60005b83811015612708578154818901526001820191506020810190506126e9565b838801955050505b50505092915050565b6000612726601e83612cb0565b91507f436572746966696361746520616c7265616479207265676973746572656400006000830152602082019050919050565b6000612766601f83612cb0565b91507f4365727469666963617465206861736820616c726561647920657869737473006000830152602082019050919050565b60006127a6602283612cb0565b91507f4f6e6c792061646d696e2063616e20706572666f726d2074686973206163746960008301527f6f6e0000000000000000000000000000000000000000000000000000000000006020830152604082019050919050565b600061280c601583612cb0565b91507f4365727469666963617465206e6f7420666f756e6400000000000000000000006000830152602082019050919050565b600061012083016000830151848203600086015261285d82826125f7565b9150506020830151848203602086015261287782826125f7565b9150506040830151848203604086015261289182826125f7565b915050606083015184820360608601526128ab82826125f7565b915050608083015184820360808601526128c582826125f7565b91505060a083015184820360a08601526128df82826125f7565b91505060c083015184820360c08601526128f982826125f7565b91505060e083015184820360e086015261291382826125f7565b91505061010083015184820361010086015261292f82826125f7565b9150508091505092915050565b600061012083016000830151848203600086015261295a82826125f7565b9150506020830151848203602086015261297482826125f7565b9150506040830151848203604086015261298e82826125f7565b915050606083015184820360608601526129a882826125f7565b915050608083015184820360808601526129c282826125f7565b91505060a083015184820360a08601526129dc82826125f7565b91505060c083015184820360c08601526129f682826125f7565b91505060e083015184820360e0860152612a1082826125f7565b915050610100830151848203610100860152612a2c82826125f7565b9150508091505092915050565b612a4281612d0c565b82525050565b6000612a548284612669565b915081905092915050565b6000612a6b828461269a565b915081905092915050565b60006020820190508181036000830152612a908184612573565b905092915050565b60006020820190508181036000830152612ab28184612630565b905092915050565b60006040820190508181036000830152612ad48185612630565b9050612ae36020830184612a39565b9392505050565b60006060820190508181036000830152612b048186612630565b9050612b136020830185612a39565b612b2060408301846125e8565b949350505050565b60006020820190508181036000830152612b4181612719565b9050919050565b60006020820190508181036000830152612b6181612759565b9050919050565b60006020820190508181036000830152612b8181612799565b9050919050565b60006020820190508181036000830152612ba1816127ff565b9050919050565b60006020820190508181036000830152612bc2818461293c565b905092915050565b6000602082019050612bdf6000830184612a39565b92915050565b6000604051905081810181811067ffffffffffffffff82111715612c0c57612c0b612e31565b5b8060405250919050565b600067ffffffffffffffff821115612c3157612c30612e31565b5b601f19601f8301169050602081019050919050565b6000819050602082019050919050565b60008190508160005260206000209050919050565b600081519050919050565b600081519050919050565b6000602082019050919050565b600082825260208201905092915050565b600082825260208201905092915050565b600082825260208201905092915050565b600081905092915050565b6000612cd782612d0c565b9150612ce283612d0c565b925082821015612cf557612cf4612dd3565b5b828203905092915050565b60008115159050919050565b6000819050919050565b82818337600083830152505050565b60005b83811015612d43578082015181840152602081019050612d28565b83811115612d52576000848401525b50505050565b60006002820490506001821680612d7057607f821691505b60208210811415612d8457612d83612e02565b5b50919050565b6000612d9582612d0c565b91507fffffffffffffffffffffffffffffffffffffffffffffffffffffffffffffffff821415612dc857612dc7612dd3565b5b600182019050919050565b7f4e487b7100000000000000000000000000000000000000000000000000000000600052601160045260246000fd5b7f4e487b7100000000000000000000000000000000000000000000000000000000600052602260045260246000fd5b7f4e487b7100000000000000000000000000000000000000000000000000000000600052604160045260246000fd5b6000601f19601f830116905091905056fea2646970667358221220c7c5e2431c92e8c983e0194b5529c0bf113282cad5198bc29d749dd06af7001a64736f6c63430008000033",
  "immutableReferences": {},
  "source": "// SPDX-License-Identifier: MIT\npragma solidity ^0.8.0;\n\ncontract CertificateRegistry {\n    address private admin;\n\n    struct Certificate {\n        string serialNumber;\n        string name;\n        string certCID; // IPFS CID for the PDF\n        string icNumber;\n        string studentId;\n        string courseName;\n        string issuedDate;\n        string certHash; // Hash of the certificate PDF\n        string transCID; // IPFS CID for the transcript\n    }\n\n    mapping(string => Certificate) private certificates;\n    mapping(string => string) private certHashToSerial; \n    string[] private certificateSerialNumbers; // To store all serial numbers\n\n    // Events for tracking transactions\n    event CertificateRegistered(\n        string serialNumber,\n        address indexed sender,\n        uint256 timestamp\n    );\n\n    event CertificateUpdated(\n        string serialNumber,\n        address indexed sender,\n        uint256 timestamp\n    );\n\n    event CertificateDeleted(\n        string serialNumber,\n        address indexed sender,\n        uint256 timestamp\n    );\n\n    event CertificateVerified(\n        string serialNumber,\n        address indexed verifier,\n        uint256 timestamp,\n        bool verified\n    );\n\n    modifier onlyAdmin() {\n        require(msg.sender == admin, \"Only admin can perform this action\");\n        _;\n    }\n\n    constructor() {\n        admin = msg.sender;\n    }\n\n    function registerCertificate(\n        string memory serialNumber,\n        string memory name,\n        string memory certCID,\n        string memory icNumber,\n        string memory studentId,\n        string memory courseName,\n        string memory issuedDate,\n        string memory certHash,\n        string memory transCID\n    ) public onlyAdmin {\n        require(bytes(certificates[serialNumber].serialNumber).length == 0, \"Certificate already registered\");\n        require(bytes(certHashToSerial[certHash]).length == 0, \"Certificate hash already exists\");\n\n        certificates[serialNumber] = Certificate(\n            serialNumber,\n            name,\n            certCID,\n            icNumber,\n            studentId,\n            courseName,\n            issuedDate,\n            certHash,\n            transCID\n        );\n\n        certificateSerialNumbers.push(serialNumber);\n        certHashToSerial[certHash] = serialNumber; // Store hash-to-serial mapping\n\n        emit CertificateRegistered(serialNumber, msg.sender, block.timestamp);\n    }\n\n    function getCertificate(string memory serialNumber)\n        public\n        view\n        returns (Certificate memory)\n    {\n        Certificate memory cert = certificates[serialNumber];\n        require(bytes(cert.serialNumber).length > 0, \"Certificate not found\");\n        return cert;\n    }\n\n    function getCertificateByHash(string memory certHash)\n        public\n        view\n        returns (Certificate memory)\n    {\n        string memory serialNumber = certHashToSerial[certHash];\n        require(bytes(serialNumber).length > 0, \"Certificate not found\");\n\n        return certificates[serialNumber];\n    }\n\n    function getAllCertificates() public view onlyAdmin returns (Certificate[] memory) {\n        uint256 length = certificateSerialNumbers.length;\n        Certificate[] memory allCertificates = new Certificate[](length);\n\n        for (uint256 i = 0; i < length; i++) {\n            allCertificates[i] = certificates[certificateSerialNumbers[i]];\n        }\n\n        return allCertificates;\n    }\n\n    function verifyCertificate(string memory serialNumber) public {\n        require(bytes(certificates[serialNumber].serialNumber).length > 0, \"Certificate not found\");\n\n        emit CertificateVerified(serialNumber, msg.sender, block.timestamp, true);\n    }\n\n    function verifyCertificateByHash(string memory certHash) public returns (string memory) {\n        string memory serialNumber = certHashToSerial[certHash];\n        require(bytes(serialNumber).length > 0, \"Certificate not found\");\n\n        emit CertificateVerified(serialNumber, msg.sender, block.timestamp, true);\n        return serialNumber;\n    }\n\n    function updateCertificate(\n        string memory serialNumber,\n        string memory newName,\n        string memory newCertCID,\n        string memory newIcNumber,\n        string memory newStudentId,\n        string memory newCourseName,\n        string memory newIssuedDate,\n        string memory newCertHash,\n        string memory newTransCID\n    ) public onlyAdmin {\n        Certificate storage cert = certificates[serialNumber];\n        require(bytes(cert.serialNumber).length > 0, \"Certificate not found\");\n\n        cert.name = newName;\n        cert.certCID = newCertCID;\n        cert.icNumber = newIcNumber;\n        cert.studentId = newStudentId;\n        cert.courseName = newCourseName;\n        cert.issuedDate = newIssuedDate;\n        cert.certHash = newCertHash;\n        cert.transCID = newTransCID;\n\n        emit CertificateUpdated(serialNumber, msg.sender, block.timestamp);\n    }\n\n    function deleteCertificate(string memory serialNumber) public onlyAdmin {\n        require(bytes(certificates[serialNumber].serialNumber).length > 0, \"Certificate not found\");\n\n        // Delete from certHashToSerial mapping\n        string memory storedHash = certHashToSerial[serialNumber];\n        delete certHashToSerial[storedHash];\n\n        // Delete from certificates mapping\n        delete certificates[serialNumber];\n\n        // Remove from certificateSerialNumbers array\n        for (uint256 i = 0; i < certificateSerialNumbers.length; i++) {\n            if (keccak256(abi.encodePacked(certificateSerialNumbers[i])) == keccak256(abi.encodePacked(serialNumber))) {\n                certificateSerialNumbers[i] = certificateSerialNumbers[certificateSerialNumbers.length - 1];\n                certificateSerialNumbers.pop();\n                break;\n            }\n        }\n\n        emit CertificateDeleted(serialNumber, msg.sender, block.timestamp);\n    }\n\n    function getCertificatesCount() public view returns (uint256) {\n        return certificateSerialNumbers.length;\n    }\n}\n",
  "sourcePath": "C:\\xampp\\htdocs\\laravel-react-blockchain\\react-frontend\\blockchain\\contracts\\CertificateRegistry.sol",
  "compiler": {
    "name": "solc",
    "version": "0.8.0+commit.c7dfd78e.Emscripten.clang"
  },
  "schemaVersion": "3.4.16",
  "updatedAt": "2025-03-09T12:35:54.514Z",
  "networkType": "ethereum",
  "devdoc": {
    "kind": "dev",
    "methods": {},
    "version": 1
  },
  "userdoc": {
    "kind": "user",
    "methods": {},
    "version": 1
  }
}