{
  "contractName": "CertificateRegistry",
  "abi": [
    {
      "inputs": [
        {
          "internalType": "string",
          "name": "serialNumber",
          "type": "string"
        },
        {
          "internalType": "string",
          "name": "name",
          "type": "string"
        },
        {
          "internalType": "string",
          "name": "cid",
          "type": "string"
        }
      ],
      "name": "registerCertificate",
      "outputs": [],
      "stateMutability": "nonpayable",
      "type": "function"
    },
    {
      "inputs": [
        {
          "internalType": "string",
          "name": "serialNumber",
          "type": "string"
        }
      ],
      "name": "getCertificate",
      "outputs": [
        {
          "internalType": "string",
          "name": "",
          "type": "string"
        },
        {
          "internalType": "string",
          "name": "",
          "type": "string"
        },
        {
          "internalType": "string",
          "name": "",
          "type": "string"
        }
      ],
      "stateMutability": "view",
      "type": "function",
      "constant": true
    },
    {
      "inputs": [],
      "name": "getAllCertificates",
      "outputs": [
        {
          "internalType": "string[]",
          "name": "",
          "type": "string[]"
        },
        {
          "internalType": "string[]",
          "name": "",
          "type": "string[]"
        },
        {
          "internalType": "string[]",
          "name": "",
          "type": "string[]"
        }
      ],
      "stateMutability": "view",
      "type": "function",
      "constant": true
    },
    {
      "inputs": [
        {
          "internalType": "string",
          "name": "serialNumber",
          "type": "string"
        },
        {
          "internalType": "string",
          "name": "newName",
          "type": "string"
        },
        {
          "internalType": "string",
          "name": "newCid",
          "type": "string"
        }
      ],
      "name": "updateCertificate",
      "outputs": [],
      "stateMutability": "nonpayable",
      "type": "function"
    },
    {
      "inputs": [
        {
          "internalType": "string",
          "name": "serialNumber",
          "type": "string"
        }
      ],
      "name": "deleteCertificate",
      "outputs": [],
      "stateMutability": "nonpayable",
      "type": "function"
    }
  ],
  "bytecode": "0x608060405234801561001057600080fd5b506114ea806100206000396000f3fe608060405234801561001057600080fd5b50600436106100575760003560e01c806313fcfe801461005c57806381f6bf7d1461007c578063d6a12e6c14610098578063dcb8124c146100b4578063ed0f2e75146100d0575b600080fd5b610064610102565b6040516100739392919061117c565b60405180910390f35b61009660048036038101906100919190610e8b565b610643565b005b6100b260048036038101906100ad9190610ecc565b6108e7565b005b6100ce60048036038101906100c99190610ecc565b6109bb565b005b6100ea60048036038101906100e59190610e8b565b610a67565b6040516100f9939291906111c8565b60405180910390f35b6060806060600060018054905067ffffffffffffffff81111561014e577f4e487b7100000000000000000000000000000000000000000000000000000000600052604160045260246000fd5b60405190808252806020026020018201604052801561018157816020015b606081526020019060019003908161016c5790505b509050600060018054905067ffffffffffffffff8111156101cb577f4e487b7100000000000000000000000000000000000000000000000000000000600052604160045260246000fd5b6040519080825280602002602001820160405280156101fe57816020015b60608152602001906001900390816101e95790505b509050600060018054905067ffffffffffffffff811115610248577f4e487b7100000000000000000000000000000000000000000000000000000000600052604160045260246000fd5b60405190808252806020026020018201604052801561027b57816020015b60608152602001906001900390816102665790505b50905060005b600180549050811015610631576000600182815481106102ca577f4e487b7100000000000000000000000000000000000000000000000000000000600052603260045260246000fd5b9060005260206000200180546102df9061139b565b80601f016020809104026020016040519081016040528092919081815260200182805461030b9061139b565b80156103585780601f1061032d57610100808354040283529160200191610358565b820191906000526020600020905b81548152906001019060200180831161033b57829003601f168201915b5050505050905060008082604051610370919061114e565b90815260200160405180910390206040518060600160405290816000820180546103999061139b565b80601f01602080910402602001604051908101604052809291908181526020018280546103c59061139b565b80156104125780601f106103e757610100808354040283529160200191610412565b820191906000526020600020905b8154815290600101906020018083116103f557829003601f168201915b5050505050815260200160018201805461042b9061139b565b80601f01602080910402602001604051908101604052809291908181526020018280546104579061139b565b80156104a45780601f10610479576101008083540402835291602001916104a4565b820191906000526020600020905b81548152906001019060200180831161048757829003601f168201915b505050505081526020016002820180546104bd9061139b565b80601f01602080910402602001604051908101604052809291908181526020018280546104e99061139b565b80156105365780601f1061050b57610100808354040283529160200191610536565b820191906000526020600020905b81548152906001019060200180831161051957829003601f168201915b5050505050815250509050806000015186848151811061057f577f4e487b7100000000000000000000000000000000000000000000000000000000600052603260045260246000fd5b602002602001018190525080602001518584815181106105c8577f4e487b7100000000000000000000000000000000000000000000000000000000600052603260045260246000fd5b60200260200101819052508060400151848481518110610611577f4e487b7100000000000000000000000000000000000000000000000000000000600052603260045260246000fd5b602002602001018190525050508080610629906113cd565b915050610281565b50828282955095509550505050909192565b60008082604051610654919061114e565b908152602001604051809103902060000180546106709061139b565b9050116106b2576040517f08c379a00000000000000000000000000000000000000000000000000000000081526004016106a990611214565b60405180910390fd5b6000816040516106c2919061114e565b9081526020016040518091039020600080820160006106e19190610cb3565b6001820160006106f19190610cb3565b6002820160006107019190610cb3565b50506000600180549050905060005b6001805490508110156107cf578260405160200161072e919061114e565b604051602081830303815290604052805190602001206001828154811061077e577f4e487b7100000000000000000000000000000000000000000000000000000000600052603260045260246000fd5b906000526020600020016040516020016107989190611165565b6040516020818303038152906040528051906020012014156107bc578091506107cf565b80806107c7906113cd565b915050610710565b506001805490508110156108e35760018080805490506107ef919061131b565b81548110610826577f4e487b7100000000000000000000000000000000000000000000000000000000600052603260045260246000fd5b906000526020600020016001828154811061086a577f4e487b7100000000000000000000000000000000000000000000000000000000600052603260045260246000fd5b906000526020600020019080546108809061139b565b61088b929190610cf3565b5060018054806108c4577f4e487b7100000000000000000000000000000000000000000000000000000000600052603160045260246000fd5b6001900381819060005260206000200160006108e09190610cb3565b90555b5050565b604051806060016040528084815260200183815260200182815250600084604051610912919061114e565b9081526020016040518091039020600082015181600001908051906020019061093c929190610d80565b506020820151816001019080519060200190610959929190610d80565b506040820151816002019080519060200190610976929190610d80565b509050506001839080600181540180825580915050600190039060005260206000200160009091909190915090805190602001906109b5929190610d80565b50505050565b600080846040516109cc919061114e565b9081526020016040518091039020905060008160000180546109ed9061139b565b905011610a2f576040517f08c379a0000000000000000000000000000000000000000000000000000000008152600401610a2690611214565b60405180910390fd5b82816001019080519060200190610a47929190610d80565b5081816002019080519060200190610a60929190610d80565b5050505050565b606080606060008085604051610a7d919061114e565b9081526020016040518091039020604051806060016040529081600082018054610aa69061139b565b80601f0160208091040260200160405190810160405280929190818152602001828054610ad29061139b565b8015610b1f5780601f10610af457610100808354040283529160200191610b1f565b820191906000526020600020905b815481529060010190602001808311610b0257829003601f168201915b50505050508152602001600182018054610b389061139b565b80601f0160208091040260200160405190810160405280929190818152602001828054610b649061139b565b8015610bb15780601f10610b8657610100808354040283529160200191610bb1565b820191906000526020600020905b815481529060010190602001808311610b9457829003601f168201915b50505050508152602001600282018054610bca9061139b565b80601f0160208091040260200160405190810160405280929190818152602001828054610bf69061139b565b8015610c435780601f10610c1857610100808354040283529160200191610c43565b820191906000526020600020905b815481529060010190602001808311610c2657829003601f168201915b5050505050815250509050600081600001515111610c96576040517f08c379a0000000000000000000000000000000000000000000000000000000008152600401610c8d90611214565b60405180910390fd5b806000015181602001518260400151935093509350509193909250565b508054610cbf9061139b565b6000825580601f10610cd15750610cf0565b601f016020900490600052602060002090810190610cef9190610e06565b5b50565b828054610cff9061139b565b90600052602060002090601f016020900481019282610d215760008555610d6f565b82601f10610d325780548555610d6f565b82800160010185558215610d6f57600052602060002091601f016020900482015b82811115610d6e578254825591600101919060010190610d53565b5b509050610d7c9190610e06565b5090565b828054610d8c9061139b565b90600052602060002090601f016020900481019282610dae5760008555610df5565b82601f10610dc757805160ff1916838001178555610df5565b82800160010185558215610df5579182015b82811115610df4578251825591602001919060010190610dd9565b5b509050610e029190610e06565b5090565b5b80821115610e1f576000816000905550600101610e07565b5090565b6000610e36610e3184611265565b611234565b905082815260208101848484011115610e4e57600080fd5b610e59848285611359565b509392505050565b600082601f830112610e7257600080fd5b8135610e82848260208601610e23565b91505092915050565b600060208284031215610e9d57600080fd5b600082013567ffffffffffffffff811115610eb757600080fd5b610ec384828501610e61565b91505092915050565b600080600060608486031215610ee157600080fd5b600084013567ffffffffffffffff811115610efb57600080fd5b610f0786828701610e61565b935050602084013567ffffffffffffffff811115610f2457600080fd5b610f3086828701610e61565b925050604084013567ffffffffffffffff811115610f4d57600080fd5b610f5986828701610e61565b9150509250925092565b6000610f6f8383610fec565b905092915050565b6000610f82826112ba565b610f8c81856112dd565b935083602082028501610f9e85611295565b8060005b85811015610fda5784840389528151610fbb8582610f63565b9450610fc6836112d0565b925060208a01995050600181019050610fa2565b50829750879550505050505092915050565b6000610ff7826112c5565b61100181856112ee565b9350611011818560208601611368565b61101a816114a3565b840191505092915050565b6000611030826112c5565b61103a81856112ff565b935061104a818560208601611368565b611053816114a3565b840191505092915050565b6000611069826112c5565b6110738185611310565b9350611083818560208601611368565b80840191505092915050565b6000815461109c8161139b565b6110a68186611310565b945060018216600081146110c157600181146110d257611105565b60ff19831686528186019350611105565b6110db856112a5565b60005b838110156110fd578154818901526001820191506020810190506110de565b838801955050505b50505092915050565b600061111b6015836112ff565b91507f4365727469666963617465206e6f7420666f756e6400000000000000000000006000830152602082019050919050565b600061115a828461105e565b915081905092915050565b6000611171828461108f565b915081905092915050565b600060608201905081810360008301526111968186610f77565b905081810360208301526111aa8185610f77565b905081810360408301526111be8184610f77565b9050949350505050565b600060608201905081810360008301526111e28186611025565b905081810360208301526111f68185611025565b9050818103604083015261120a8184611025565b9050949350505050565b6000602082019050818103600083015261122d8161110e565b9050919050565b6000604051905081810181811067ffffffffffffffff8211171561125b5761125a611474565b5b8060405250919050565b600067ffffffffffffffff8211156112805761127f611474565b5b601f19601f8301169050602081019050919050565b6000819050602082019050919050565b60008190508160005260206000209050919050565b600081519050919050565b600081519050919050565b6000602082019050919050565b600082825260208201905092915050565b600082825260208201905092915050565b600082825260208201905092915050565b600081905092915050565b60006113268261134f565b91506113318361134f565b92508282101561134457611343611416565b5b828203905092915050565b6000819050919050565b82818337600083830152505050565b60005b8381101561138657808201518184015260208101905061136b565b83811115611395576000848401525b50505050565b600060028204905060018216806113b357607f821691505b602082108114156113c7576113c6611445565b5b50919050565b60006113d88261134f565b91507fffffffffffffffffffffffffffffffffffffffffffffffffffffffffffffffff82141561140b5761140a611416565b5b600182019050919050565b7f4e487b7100000000000000000000000000000000000000000000000000000000600052601160045260246000fd5b7f4e487b7100000000000000000000000000000000000000000000000000000000600052602260045260246000fd5b7f4e487b7100000000000000000000000000000000000000000000000000000000600052604160045260246000fd5b6000601f19601f830116905091905056fea26469706673582212202f85d079f31bbcd9020ce0d87eeb97a5a40c6697740b03083ee41a317a5b8d1c64736f6c63430008000033",
  "immutableReferences": {},
  "source": "// SPDX-License-Identifier: MIT\npragma solidity ^0.8.0;\n\ncontract CertificateRegistry {\n    struct Certificate {\n        string serialNumber;\n        string name;\n        string cid; // IPFS CID for the PDF\n    }\n\n    mapping(string => Certificate) private certificates;\n    string[] private certificateSerialNumbers; // To store all serial numbers\n\n    // Register a certificate\n    function registerCertificate(\n        string memory serialNumber,\n        string memory name,\n        string memory cid\n    ) public {\n        // Add the certificate to the mapping\n        certificates[serialNumber] = Certificate(serialNumber, name, cid);\n        \n        // Add the serial number to the array\n        certificateSerialNumbers.push(serialNumber);\n    }\n\n    // Get a specific certificate\n    function getCertificate(\n        string memory serialNumber\n    ) public view returns (string memory, string memory, string memory) {\n        Certificate memory cert = certificates[serialNumber];\n        require(bytes(cert.serialNumber).length > 0, \"Certificate not found\");\n        return (cert.serialNumber, cert.name, cert.cid);\n    }\n\n    // Get all certificates' details (serialNumber, name, and cid)\n    function getAllCertificates() public view returns (string[] memory, string[] memory, string[] memory) {\n        string[] memory serialNumbers = new string[](certificateSerialNumbers.length);\n        string[] memory names = new string[](certificateSerialNumbers.length);\n        string[] memory cids = new string[](certificateSerialNumbers.length);\n\n        for (uint i = 0; i < certificateSerialNumbers.length; i++) {\n            string memory serialNumber = certificateSerialNumbers[i];\n            Certificate memory cert = certificates[serialNumber];\n            serialNumbers[i] = cert.serialNumber;\n            names[i] = cert.name;\n            cids[i] = cert.cid;\n        }\n\n        return (serialNumbers, names, cids);\n    }\n\n    // Update an existing certificate's name and CID by serial number\n    function updateCertificate(\n        string memory serialNumber,\n        string memory newName,\n        string memory newCid\n    ) public {\n        Certificate storage cert = certificates[serialNumber];\n        \n        // Check if the certificate exists\n        require(bytes(cert.serialNumber).length > 0, \"Certificate not found\");\n\n        // Update the certificate details\n        cert.name = newName;\n        cert.cid = newCid;\n    }\n\n    // Delete a certificate by serial number\n    function deleteCertificate(string memory serialNumber) public {\n        // Check if the certificate exists\n        require(bytes(certificates[serialNumber].serialNumber).length > 0, \"Certificate not found\");\n\n        // Delete the certificate from the mapping\n        delete certificates[serialNumber];\n\n        // Find the index of the serial number in the array\n        uint256 indexToDelete = certificateSerialNumbers.length;\n        for (uint256 i = 0; i < certificateSerialNumbers.length; i++) {\n            if (keccak256(abi.encodePacked(certificateSerialNumbers[i])) == keccak256(abi.encodePacked(serialNumber))) {\n                indexToDelete = i;\n                break;\n            }\n        }\n\n        // If the serial number was found, remove it from the array\n        if (indexToDelete < certificateSerialNumbers.length) {\n            certificateSerialNumbers[indexToDelete] = certificateSerialNumbers[certificateSerialNumbers.length - 1];\n            certificateSerialNumbers.pop(); // Remove the last element\n        }\n    }\n}\n",
  "sourcePath": "C:\\xampp\\htdocs\\laravel-react-blockchain\\react-frontend\\blockchain\\contracts\\CertificateRegistry.sol",
  "compiler": {
    "name": "solc",
    "version": "0.8.0+commit.c7dfd78e.Emscripten.clang"
  },
  "schemaVersion": "3.4.16",
  "updatedAt": "2024-12-13T06:05:54.406Z",
  "networkType": "ethereum",
  "devdoc": {
    "kind": "dev",
    "methods": {},
    "version": 1
  },
  "userdoc": {
    "kind": "user",
    "methods": {},
    "version": 1
  }
}